{
  "_format": "hh-sol-artifact-1",
  "contractName": "MetaVault",
  "sourceName": "contracts/MetaVault.sol",
  "abi": [
    {
      "inputs": [
        {
          "internalType": "address",
          "name": "_asset",
          "type": "address"
        },
        {
          "internalType": "address",
          "name": "_feeRecipient",
          "type": "address"
        }
      ],
      "stateMutability": "nonpayable",
      "type": "constructor"
    },
    {
      "inputs": [
        {
          "internalType": "address",
          "name": "owner",
          "type": "address"
        }
      ],
      "name": "OwnableInvalidOwner",
      "type": "error"
    },
    {
      "inputs": [
        {
          "internalType": "address",
          "name": "account",
          "type": "address"
        }
      ],
      "name": "OwnableUnauthorizedAccount",
      "type": "error"
    },
    {
      "inputs": [],
      "name": "ReentrancyGuardReentrantCall",
      "type": "error"
    },
    {
      "anonymous": false,
      "inputs": [
        {
          "indexed": true,
          "internalType": "address",
          "name": "user",
          "type": "address"
        },
        {
          "indexed": false,
          "internalType": "uint256",
          "name": "amount",
          "type": "uint256"
        },
        {
          "indexed": false,
          "internalType": "uint256",
          "name": "shares",
          "type": "uint256"
        }
      ],
      "name": "Deposit",
      "type": "event"
    },
    {
      "anonymous": false,
      "inputs": [
        {
          "indexed": true,
          "internalType": "address",
          "name": "previousOwner",
          "type": "address"
        },
        {
          "indexed": true,
          "internalType": "address",
          "name": "newOwner",
          "type": "address"
        }
      ],
      "name": "OwnershipTransferred",
      "type": "event"
    },
    {
      "anonymous": false,
      "inputs": [
        {
          "indexed": false,
          "internalType": "uint256[]",
          "name": "newAllocations",
          "type": "uint256[]"
        }
      ],
      "name": "Rebalance",
      "type": "event"
    },
    {
      "anonymous": false,
      "inputs": [
        {
          "indexed": true,
          "internalType": "address",
          "name": "user",
          "type": "address"
        },
        {
          "indexed": false,
          "internalType": "uint256",
          "name": "shares",
          "type": "uint256"
        },
        {
          "indexed": false,
          "internalType": "uint256",
          "name": "amount",
          "type": "uint256"
        }
      ],
      "name": "Withdraw",
      "type": "event"
    },
    {
      "inputs": [
        {
          "internalType": "address",
          "name": "strategy",
          "type": "address"
        },
        {
          "internalType": "uint256",
          "name": "allocation",
          "type": "uint256"
        }
      ],
      "name": "addStrategy",
      "outputs": [],
      "stateMutability": "nonpayable",
      "type": "function"
    },
    {
      "inputs": [
        {
          "internalType": "uint256",
          "name": "",
          "type": "uint256"
        }
      ],
      "name": "allocations",
      "outputs": [
        {
          "internalType": "uint256",
          "name": "",
          "type": "uint256"
        }
      ],
      "stateMutability": "view",
      "type": "function"
    },
    {
      "inputs": [],
      "name": "asset",
      "outputs": [
        {
          "internalType": "contract IERC20",
          "name": "",
          "type": "address"
        }
      ],
      "stateMutability": "view",
      "type": "function"
    },
    {
      "inputs": [
        {
          "internalType": "uint256",
          "name": "amount",
          "type": "uint256"
        }
      ],
      "name": "deposit",
      "outputs": [],
      "stateMutability": "nonpayable",
      "type": "function"
    },
    {
      "inputs": [
        {
          "internalType": "address",
          "name": "",
          "type": "address"
        }
      ],
      "name": "depositedAmount",
      "outputs": [
        {
          "internalType": "uint256",
          "name": "",
          "type": "uint256"
        }
      ],
      "stateMutability": "view",
      "type": "function"
    },
    {
      "inputs": [],
      "name": "feeRecipient",
      "outputs": [
        {
          "internalType": "address",
          "name": "",
          "type": "address"
        }
      ],
      "stateMutability": "view",
      "type": "function"
    },
    {
      "inputs": [
        {
          "internalType": "address",
          "name": "user",
          "type": "address"
        }
      ],
      "name": "getUserValue",
      "outputs": [
        {
          "internalType": "uint256",
          "name": "",
          "type": "uint256"
        }
      ],
      "stateMutability": "view",
      "type": "function"
    },
    {
      "inputs": [],
      "name": "owner",
      "outputs": [
        {
          "internalType": "address",
          "name": "",
          "type": "address"
        }
      ],
      "stateMutability": "view",
      "type": "function"
    },
    {
      "inputs": [],
      "name": "performanceFee",
      "outputs": [
        {
          "internalType": "uint256",
          "name": "",
          "type": "uint256"
        }
      ],
      "stateMutability": "view",
      "type": "function"
    },
    {
      "inputs": [
        {
          "internalType": "uint256[]",
          "name": "newAllocations",
          "type": "uint256[]"
        }
      ],
      "name": "rebalance",
      "outputs": [],
      "stateMutability": "nonpayable",
      "type": "function"
    },
    {
      "inputs": [
        {
          "internalType": "uint256",
          "name": "index",
          "type": "uint256"
        }
      ],
      "name": "removeStrategy",
      "outputs": [],
      "stateMutability": "nonpayable",
      "type": "function"
    },
    {
      "inputs": [],
      "name": "renounceOwnership",
      "outputs": [],
      "stateMutability": "nonpayable",
      "type": "function"
    },
    {
      "inputs": [
        {
          "internalType": "address",
          "name": "_recipient",
          "type": "address"
        }
      ],
      "name": "setFeeRecipient",
      "outputs": [],
      "stateMutability": "nonpayable",
      "type": "function"
    },
    {
      "inputs": [
        {
          "internalType": "uint256",
          "name": "_bps",
          "type": "uint256"
        }
      ],
      "name": "setPerformanceFee",
      "outputs": [],
      "stateMutability": "nonpayable",
      "type": "function"
    },
    {
      "inputs": [],
      "name": "sharePrice",
      "outputs": [
        {
          "internalType": "uint256",
          "name": "",
          "type": "uint256"
        }
      ],
      "stateMutability": "view",
      "type": "function"
    },
    {
      "inputs": [
        {
          "internalType": "address",
          "name": "",
          "type": "address"
        }
      ],
      "name": "shares",
      "outputs": [
        {
          "internalType": "uint256",
          "name": "",
          "type": "uint256"
        }
      ],
      "stateMutability": "view",
      "type": "function"
    },
    {
      "inputs": [
        {
          "internalType": "uint256",
          "name": "",
          "type": "uint256"
        }
      ],
      "name": "strategies",
      "outputs": [
        {
          "internalType": "address",
          "name": "",
          "type": "address"
        }
      ],
      "stateMutability": "view",
      "type": "function"
    },
    {
      "inputs": [],
      "name": "totalAssets",
      "outputs": [
        {
          "internalType": "uint256",
          "name": "total",
          "type": "uint256"
        }
      ],
      "stateMutability": "view",
      "type": "function"
    },
    {
      "inputs": [],
      "name": "totalShares",
      "outputs": [
        {
          "internalType": "uint256",
          "name": "",
          "type": "uint256"
        }
      ],
      "stateMutability": "view",
      "type": "function"
    },
    {
      "inputs": [
        {
          "internalType": "address",
          "name": "newOwner",
          "type": "address"
        }
      ],
      "name": "transferOwnership",
      "outputs": [],
      "stateMutability": "nonpayable",
      "type": "function"
    },
    {
      "inputs": [
        {
          "internalType": "uint256",
          "name": "shareAmount",
          "type": "uint256"
        }
      ],
      "name": "withdraw",
      "outputs": [],
      "stateMutability": "nonpayable",
      "type": "function"
    }
  ],
  "bytecode": "0x60a06040526103e8600655348015610015575f80fd5b506040516112eb3803806112eb83398101604081905261003491610119565b338061005957604051631e4fbdf760e01b81525f600482015260240160405180910390fd5b610062816100af565b5060017f9b779b17422d0df92223018b32b4d1fa46e071723d6817e2486d003becc55f00556001600160a01b03918216608052600780546001600160a01b0319169190921617905561014a565b5f80546001600160a01b038381166001600160a01b0319831681178455604051919092169283917f8be0079c531659141344cd1fd0a4f28419497f9722a3daafe3b4186f6b6457e09190a35050565b80516001600160a01b0381168114610114575f80fd5b919050565b5f806040838503121561012a575f80fd5b610133836100fe565b9150610141602084016100fe565b90509250929050565b60805161116d61017e5f395f818161017e015281816102fd015281816105b40152818161062c01526109dd015261116d5ff3fe608060405234801561000f575f80fd5b5060043610610132575f3560e01c806387269729116100b4578063c0cbbca611610079578063c0cbbca614610268578063c9411e221461027b578063ce7c2ac21461028e578063d574ea3d146102ad578063e74b981b146102c0578063f2fde38b146102d3575f80fd5b8063872697291461022157806387788782146102295780638da5cb5b14610232578063a78c849b14610242578063b6b55f2514610255575f80fd5b806346904840116100fa57806346904840146101c15780634a4643f7146101d457806370897b23146101f3578063715018a614610206578063780d57101461020e575f80fd5b806301e1d114146101365780630a2642bf146101515780632e1a7d4d1461016457806338d52e0f146101795780633a98ef39146101b8575b5f80fd5b61013e6102e6565b6040519081526020015b60405180910390f35b61013e61015f366004610f27565b610415565b610177610172366004610f27565b610434565b005b6101a07f000000000000000000000000000000000000000000000000000000000000000081565b6040516001600160a01b039091168152602001610148565b61013e60015481565b6007546101a0906001600160a01b031681565b61013e6101e2366004610f59565b60036020525f908152604090205481565b610177610201366004610f27565b61072b565b610177610779565b61017761021c366004610f79565b61078c565b61013e6108d9565b61013e60065481565b5f546001600160a01b03166101a0565b61013e610250366004610f59565b61091c565b610177610263366004610f27565b61096a565b610177610276366004610f27565b610b30565b610177610289366004610fea565b610d4f565b61013e61029c366004610f59565b60026020525f908152604090205481565b6101a06102bb366004610f27565b610dd6565b6101776102ce366004610f59565b610dfe565b6101776102e1366004610f59565b610e28565b6040516370a0823160e01b81523060048201525f907f00000000000000000000000000000000000000000000000000000000000000006001600160a01b0316906370a0823190602401602060405180830381865afa15801561034a573d5f803e3d5ffd5b505050506040513d601f19601f8201168201806040525081019061036e9190611012565b90505f5b600454811015610411576004818154811061038f5761038f611029565b5f9182526020918290200154604080516278744560e21b815290516001600160a01b03909216926301e1d114926004808401938290030181865afa1580156103d9573d5f803e3d5ffd5b505050506040513d601f19601f820116820180604052508101906103fd9190611012565b6104079083611051565b9150600101610372565b5090565b60058181548110610424575f80fd5b5f91825260209091200154905081565b61043c610e62565b335f908152600260205260409020548111156104955760405162461bcd60e51b8152602060048201526013602482015272496e73756666696369656e742073686172657360681b60448201526064015b60405180910390fd5b5f600154826104a26102e6565b6104ac9190611064565b6104b6919061107b565b335f90815260026020908152604080832054600390925282205492935090916104e0908590611064565b6104ea919061107b565b90505f8183116104fa575f610504565b610504828461109a565b90505f612710600654836105189190611064565b610522919061107b565b335f9081526002602052604081208054929350879290919061054590849061109a565b9091555050335f908152600360205260408120805485929061056890849061109a565b925050819055508460015f828254610580919061109a565b909155505080156106225760075460405163a9059cbb60e01b81526001600160a01b039182166004820152602481018390527f00000000000000000000000000000000000000000000000000000000000000009091169063a9059cbb906044016020604051808303815f875af11580156105fc573d5f803e3d5ffd5b505050506040513d601f19601f8201168201806040525081019061062091906110ad565b505b6001600160a01b037f00000000000000000000000000000000000000000000000000000000000000001663a9059cbb3361065c848861109a565b6040516001600160e01b031960e085901b1681526001600160a01b03909216600483015260248201526044016020604051808303815f875af11580156106a4573d5f803e3d5ffd5b505050506040513d601f19601f820116820180604052508101906106c891906110ad565b50337ff279e6a1f5e320cca91135676d9cb6e44ca8a08c0b88342bcdb1144f6511b568866106f6848861109a565b6040805192835260208301919091520160405180910390a25050505061072860015f8051602061111883398151915255565b50565b610733610e7d565b610bb88111156107745760405162461bcd60e51b815260206004820152600c60248201526b0cccaca40e8dede40d0d2ced60a31b604482015260640161048c565b600655565b610781610e7d565b61078a5f610ea9565b565b610794610e7d565b60045481146107d45760405162461bcd60e51b815260206004820152600c60248201526b0d8cadc40dad2e6dac2e8c6d60a31b604482015260640161048c565b5f805b8281101561080d578383828181106107f1576107f1611029565b90506020020135826108039190611051565b91506001016107d7565b5080612710146108515760405162461bcd60e51b815260206004820152600f60248201526e62616420616c6c6f636174696f6e7360881b604482015260640161048c565b5f5b8281101561089a5783838281811061086d5761086d611029565b905060200201356005828154811061088757610887611029565b5f91825260209091200155600101610853565b507fc90fb8e7b2b4e1a4463f6c54d69334a5a8c1b1eef51598d4f40a0fd241d1f2b883836040516108cc9291906110cc565b60405180910390a1505050565b5f6001545f036108f05750670de0b6b3a764000090565b6001546108fb6102e6565b61090d90670de0b6b3a7640000611064565b610917919061107b565b905090565b5f6001545f0361092d57505f919050565b6001546001600160a01b0383165f908152600260205260409020546109506102e6565b61095a9190611064565b610964919061107b565b92915050565b610972610e62565b5f81116109af5760405162461bcd60e51b815260206004820152600b60248201526a16995c9bc8185b5bdd5b9d60aa1b604482015260640161048c565b5f6109b86102e6565b6040516323b872dd60e01b8152336004820152306024820152604481018490529091507f00000000000000000000000000000000000000000000000000000000000000006001600160a01b0316906323b872dd906064016020604051808303815f875af1158015610a2b573d5f803e3d5ffd5b505050506040513d601f19601f82011682018060405250810190610a4f91906110ad565b505f6001545f14610a78578160015484610a699190611064565b610a73919061107b565b610a7a565b825b335f90815260026020526040812080549293508392909190610a9d908490611051565b9091555050335f9081526003602052604081208054859290610ac0908490611051565b925050819055508060015f828254610ad89190611051565b9091555050604080518481526020810183905233917f90890809c654f11d6e72a28fa60149770a0d11ec6c92319d6ceb2bb0a4ea1a15910160405180910390a2505061072860015f8051602061111883398151915255565b610b38610e7d565b6004548110610b755760405162461bcd60e51b81526020600482015260096024820152680c4c2c840d2dcc8caf60bb1b604482015260640161048c565b60048181548110610b8857610b88611029565b5f9182526020918290200154604080516278744560e21b815290516001600160a01b03909216926301e1d114926004808401938290030181865afa158015610bd2573d5f803e3d5ffd5b505050506040513d601f19601f82011682018060405250810190610bf69190611012565b15610c385760405162461bcd60e51b81526020600482015260126024820152717374726174656779206e6f6e2d656d70747960701b604482015260640161048c565b6004545f90610c499060019061109a565b9050808214610cf65760048181548110610c6557610c65611029565b5f91825260209091200154600480546001600160a01b039092169184908110610c9057610c90611029565b905f5260205f20015f6101000a8154816001600160a01b0302191690836001600160a01b0316021790555060058181548110610cce57610cce611029565b905f5260205f20015460058381548110610cea57610cea611029565b5f918252602090912001555b6004805480610d0757610d07611103565b5f8281526020902081015f1990810180546001600160a01b03191690550190556005805480610d3857610d38611103565b600190038181905f5260205f20015f905590555050565b610d57610e7d565b6004805460018082019092557f8a35acfbc15ff81a39ae7d344fd709f28e8600b4aa8c65c6b64bfe7fe36bd19b0180546001600160a01b0319166001600160a01b0394909416939093179092556005805492830181555f527f036b6384b5eca791c62761152d0c79bb0604c104a5fb6f4eb0703f3154bb3db090910155565b60048181548110610de5575f80fd5b5f918252602090912001546001600160a01b0316905081565b610e06610e7d565b600780546001600160a01b0319166001600160a01b0392909216919091179055565b610e30610e7d565b6001600160a01b038116610e5957604051631e4fbdf760e01b81525f600482015260240161048c565b61072881610ea9565b610e6a610ef8565b60025f8051602061111883398151915255565b5f546001600160a01b0316331461078a5760405163118cdaa760e01b815233600482015260240161048c565b5f80546001600160a01b038381166001600160a01b0319831681178455604051919092169283917f8be0079c531659141344cd1fd0a4f28419497f9722a3daafe3b4186f6b6457e09190a35050565b5f805160206111188339815191525460020361078a57604051633ee5aeb560e01b815260040160405180910390fd5b5f60208284031215610f37575f80fd5b5035919050565b80356001600160a01b0381168114610f54575f80fd5b919050565b5f60208284031215610f69575f80fd5b610f7282610f3e565b9392505050565b5f8060208385031215610f8a575f80fd5b823567ffffffffffffffff811115610fa0575f80fd5b8301601f81018513610fb0575f80fd5b803567ffffffffffffffff811115610fc6575f80fd5b8560208260051b8401011115610fda575f80fd5b6020919091019590945092505050565b5f8060408385031215610ffb575f80fd5b61100483610f3e565b946020939093013593505050565b5f60208284031215611022575f80fd5b5051919050565b634e487b7160e01b5f52603260045260245ffd5b634e487b7160e01b5f52601160045260245ffd5b808201808211156109645761096461103d565b80820281158282048414176109645761096461103d565b5f8261109557634e487b7160e01b5f52601260045260245ffd5b500490565b818103818111156109645761096461103d565b5f602082840312156110bd575f80fd5b81518015158114610f72575f80fd5b602080825281018290525f6001600160fb1b038311156110ea575f80fd5b8260051b80856040850137919091016040019392505050565b634e487b7160e01b5f52603160045260245ffdfe9b779b17422d0df92223018b32b4d1fa46e071723d6817e2486d003becc55f00a2646970667358221220b734fe8c1a5066a53e589cf86e01b7a19fc14f07ada88f1d0550e33d0089568064736f6c634300081a0033",
  "linkReferences": {},
  "deployedLinkReferences": {}
}