{
  "_format": "hh-sol-artifact-1",
  "contractName": "CompoundStrategy",
  "sourceName": "contracts/strategies/CompoundStrategy.sol",
  "abi": [
    {
      "inputs": [
        {
          "internalType": "address",
          "name": "_asset",
          "type": "address"
        },
        {
          "internalType": "address",
          "name": "_vault",
          "type": "address"
        }
      ],
      "stateMutability": "nonpayable",
      "type": "constructor"
    },
    {
      "inputs": [
        {
          "internalType": "address",
          "name": "owner",
          "type": "address"
        }
      ],
      "name": "OwnableInvalidOwner",
      "type": "error"
    },
    {
      "inputs": [
        {
          "internalType": "address",
          "name": "account",
          "type": "address"
        }
      ],
      "name": "OwnableUnauthorizedAccount",
      "type": "error"
    },
    {
      "anonymous": false,
      "inputs": [
        {
          "indexed": true,
          "internalType": "address",
          "name": "previousOwner",
          "type": "address"
        },
        {
          "indexed": true,
          "internalType": "address",
          "name": "newOwner",
          "type": "address"
        }
      ],
      "name": "OwnershipTransferred",
      "type": "event"
    },
    {
      "anonymous": false,
      "inputs": [],
      "name": "Paused",
      "type": "event"
    },
    {
      "anonymous": false,
      "inputs": [
        {
          "indexed": false,
          "internalType": "uint256",
          "name": "amount",
          "type": "uint256"
        }
      ],
      "name": "StrategyDeposit",
      "type": "event"
    },
    {
      "anonymous": false,
      "inputs": [
        {
          "indexed": false,
          "internalType": "uint256",
          "name": "amount",
          "type": "uint256"
        }
      ],
      "name": "StrategyWithdraw",
      "type": "event"
    },
    {
      "anonymous": false,
      "inputs": [],
      "name": "Unpaused",
      "type": "event"
    },
    {
      "inputs": [],
      "name": "COMET_USDC",
      "outputs": [
        {
          "internalType": "address",
          "name": "",
          "type": "address"
        }
      ],
      "stateMutability": "view",
      "type": "function"
    },
    {
      "inputs": [],
      "name": "asset",
      "outputs": [
        {
          "internalType": "contract IERC20",
          "name": "",
          "type": "address"
        }
      ],
      "stateMutability": "view",
      "type": "function"
    },
    {
      "inputs": [],
      "name": "comet",
      "outputs": [
        {
          "internalType": "contract IComet",
          "name": "",
          "type": "address"
        }
      ],
      "stateMutability": "view",
      "type": "function"
    },
    {
      "inputs": [
        {
          "internalType": "uint256",
          "name": "amount",
          "type": "uint256"
        }
      ],
      "name": "deposit",
      "outputs": [],
      "stateMutability": "nonpayable",
      "type": "function"
    },
    {
      "inputs": [],
      "name": "owner",
      "outputs": [
        {
          "internalType": "address",
          "name": "",
          "type": "address"
        }
      ],
      "stateMutability": "view",
      "type": "function"
    },
    {
      "inputs": [],
      "name": "pause",
      "outputs": [],
      "stateMutability": "nonpayable",
      "type": "function"
    },
    {
      "inputs": [],
      "name": "paused",
      "outputs": [
        {
          "internalType": "bool",
          "name": "",
          "type": "bool"
        }
      ],
      "stateMutability": "view",
      "type": "function"
    },
    {
      "inputs": [],
      "name": "renounceOwnership",
      "outputs": [],
      "stateMutability": "nonpayable",
      "type": "function"
    },
    {
      "inputs": [],
      "name": "totalAssets",
      "outputs": [
        {
          "internalType": "uint256",
          "name": "",
          "type": "uint256"
        }
      ],
      "stateMutability": "view",
      "type": "function"
    },
    {
      "inputs": [
        {
          "internalType": "address",
          "name": "newOwner",
          "type": "address"
        }
      ],
      "name": "transferOwnership",
      "outputs": [],
      "stateMutability": "nonpayable",
      "type": "function"
    },
    {
      "inputs": [],
      "name": "unpause",
      "outputs": [],
      "stateMutability": "nonpayable",
      "type": "function"
    },
    {
      "inputs": [],
      "name": "vault",
      "outputs": [
        {
          "internalType": "address",
          "name": "",
          "type": "address"
        }
      ],
      "stateMutability": "view",
      "type": "function"
    },
    {
      "inputs": [
        {
          "internalType": "uint256",
          "name": "amount",
          "type": "uint256"
        }
      ],
      "name": "withdraw",
      "outputs": [
        {
          "internalType": "uint256",
          "name": "received",
          "type": "uint256"
        }
      ],
      "stateMutability": "nonpayable",
      "type": "function"
    }
  ],
  "bytecode": "0x60a060405234801561000f575f80fd5b50604051610b11380380610b1183398101604081905261002e91610181565b8181338061005657604051631e4fbdf760e01b81525f60048201526024015b60405180910390fd5b61005f81610117565b506001600160a01b0382161580159061008057506001600160a01b03811615155b6100cc5760405162461bcd60e51b815260206004820152601760248201527f5374726174656779426173653a207a65726f2061646472000000000000000000604482015260640161004d565b600280546001600160a01b039384166001600160a01b03199182161790915560018054929093169116179055505073aec1f48e02cfb822be958b68c7957156eb3f0b6e6080526101b2565b5f80546001600160a01b038381166001600160a01b0319831681178455604051919092169283917f8be0079c531659141344cd1fd0a4f28419497f9722a3daafe3b4186f6b6457e09190a35050565b80516001600160a01b038116811461017c575f80fd5b919050565b5f8060408385031215610192575f80fd5b61019b83610166565b91506101a960208401610166565b90509250929050565b60805161092b6101e65f395f81816101a901528181610208015281816106890152818161077b015261081f015261092b5ff3fe608060405234801561000f575f80fd5b50600436106100cb575f3560e01c8063715018a611610088578063b6b55f2511610063578063b6b55f2514610191578063ba3e9c12146101a4578063f2fde38b146101cb578063fbfa77cf146101de575f80fd5b8063715018a6146101715780638456cb59146101795780638da5cb5b14610181575f80fd5b806301e1d114146100cf5780632e1a7d4d146100ea57806338d52e0f146100fd5780633f4ba83a146101285780634166cc10146101325780635c975abb1461014d575b5f80fd5b6100d76101f1565b6040519081526020015b60405180910390f35b6100d76100f836600461087b565b61027e565b600254610110906001600160a01b031681565b6040516001600160a01b0390911681526020016100e1565b6101306103de565b005b61011073aec1f48e02cfb822be958b68c7957156eb3f0b6e81565b60025461016190600160a01b900460ff1681565b60405190151581526020016100e1565b61013061041d565b610130610430565b5f546001600160a01b0316610110565b61013061019f36600461087b565b610475565b6101107f000000000000000000000000000000000000000000000000000000000000000081565b6101306101d9366004610892565b610621565b600154610110906001600160a01b031681565b6040516370a0823160e01b81523060048201525f907f00000000000000000000000000000000000000000000000000000000000000006001600160a01b0316906370a0823190602401602060405180830381865afa158015610255573d5f803e3d5ffd5b505050506040513d601f19601f8201168201806040525081019061027991906108bf565b905090565b6001545f906001600160a01b031633146102d95760405162461bcd60e51b815260206004820152601760248201527614dd1c985d1959de50985cd94e881b9bdd081d985d5b1d604a1b60448201526064015b60405180910390fd5b5f82116103245760405162461bcd60e51b815260206004820152601960248201527814dd1c985d1959de50985cd94e881e995c9bc8185b5bdd5b9d603a1b60448201526064016102d0565b61032d8261065e565b60025460015460405163a9059cbb60e01b81526001600160a01b03918216600482015260248101849052929350169063a9059cbb906044016020604051808303815f875af1158015610381573d5f803e3d5ffd5b505050506040513d601f19601f820116820180604052508101906103a591906108d6565b506040518181527f88ca0f9ed7d03f5fa5d342b501a9c986b7f57eb2eec3e27f506581df69fa6eba9060200160405180910390a1919050565b6103e66106e6565b6002805460ff60a01b191690556040517fa45f47fdea8a1efdd9029a5691c7f759c32b7c698632b563573e155625d16933905f90a1565b6104256106e6565b61042e5f610712565b565b6104386106e6565b6002805460ff60a01b1916600160a01b1790556040517f9e87fac88ff661f02d44f95383c817fece4bce600a3dab7a54406878b965e752905f90a1565b6001546001600160a01b031633146104c95760405162461bcd60e51b815260206004820152601760248201527614dd1c985d1959de50985cd94e881b9bdd081d985d5b1d604a1b60448201526064016102d0565b600254600160a01b900460ff161561051a5760405162461bcd60e51b815260206004820152601460248201527314dd1c985d1959de50985cd94e881c185d5cd95960621b60448201526064016102d0565b5f81116105655760405162461bcd60e51b815260206004820152601960248201527814dd1c985d1959de50985cd94e881e995c9bc8185b5bdd5b9d603a1b60448201526064016102d0565b6002546001546040516323b872dd60e01b81526001600160a01b039182166004820152306024820152604481018490529116906323b872dd906064016020604051808303815f875af11580156105bd573d5f803e3d5ffd5b505050506040513d601f19601f820116820180604052508101906105e191906108d6565b506105eb81610761565b6040518181527f3fd9776d3376106cc4e17a245a9b1a7e944bdb87ef4668216a0f4deec8c2d5569060200160405180910390a150565b6106296106e6565b6001600160a01b03811661065257604051631e4fbdf760e01b81525f60048201526024016102d0565b61065b81610712565b50565b60025460405163f3fef3a360e01b81526001600160a01b039182166004820152602481018390525f917f0000000000000000000000000000000000000000000000000000000000000000169063f3fef3a3906044015f604051808303815f87803b1580156106ca575f80fd5b505af11580156106dc573d5f803e3d5ffd5b5093949350505050565b5f546001600160a01b0316331461042e5760405163118cdaa760e01b81523360048201526024016102d0565b5f80546001600160a01b038381166001600160a01b0319831681178455604051919092169283917f8be0079c531659141344cd1fd0a4f28419497f9722a3daafe3b4186f6b6457e09190a35050565b60025460405163095ea7b360e01b81526001600160a01b037f000000000000000000000000000000000000000000000000000000000000000081166004830152602482018490529091169063095ea7b3906044016020604051808303815f875af11580156107d1573d5f803e3d5ffd5b505050506040513d601f19601f820116820180604052508101906107f591906108d6565b50600254604051631e573fb760e31b81526001600160a01b039182166004820152602481018390527f00000000000000000000000000000000000000000000000000000000000000009091169063f2b9fdb8906044015f604051808303815f87803b158015610862575f80fd5b505af1158015610874573d5f803e3d5ffd5b5050505050565b5f6020828403121561088b575f80fd5b5035919050565b5f602082840312156108a2575f80fd5b81356001600160a01b03811681146108b8575f80fd5b9392505050565b5f602082840312156108cf575f80fd5b5051919050565b5f602082840312156108e6575f80fd5b815180151581146108b8575f80fdfea264697066735822122085b27490333497846e5ac4903a1f9e2a42eb08c90ae144120c31ce9c3f0f3b3564736f6c634300081a0033",
  "linkReferences": {},
  "deployedLinkReferences": {}
}