{
  "_format": "hh-sol-artifact-1",
  "contractName": "AaveStrategy",
  "sourceName": "contracts/strategies/AaveStrategy.sol",
  "abi": [
    {
      "inputs": [
        {
          "internalType": "address",
          "name": "_asset",
          "type": "address"
        },
        {
          "internalType": "address",
          "name": "_vault",
          "type": "address"
        }
      ],
      "stateMutability": "nonpayable",
      "type": "constructor"
    },
    {
      "inputs": [
        {
          "internalType": "address",
          "name": "owner",
          "type": "address"
        }
      ],
      "name": "OwnableInvalidOwner",
      "type": "error"
    },
    {
      "inputs": [
        {
          "internalType": "address",
          "name": "account",
          "type": "address"
        }
      ],
      "name": "OwnableUnauthorizedAccount",
      "type": "error"
    },
    {
      "anonymous": false,
      "inputs": [
        {
          "indexed": true,
          "internalType": "address",
          "name": "previousOwner",
          "type": "address"
        },
        {
          "indexed": true,
          "internalType": "address",
          "name": "newOwner",
          "type": "address"
        }
      ],
      "name": "OwnershipTransferred",
      "type": "event"
    },
    {
      "anonymous": false,
      "inputs": [],
      "name": "Paused",
      "type": "event"
    },
    {
      "anonymous": false,
      "inputs": [
        {
          "indexed": false,
          "internalType": "uint256",
          "name": "amount",
          "type": "uint256"
        }
      ],
      "name": "StrategyDeposit",
      "type": "event"
    },
    {
      "anonymous": false,
      "inputs": [
        {
          "indexed": false,
          "internalType": "uint256",
          "name": "amount",
          "type": "uint256"
        }
      ],
      "name": "StrategyWithdraw",
      "type": "event"
    },
    {
      "anonymous": false,
      "inputs": [],
      "name": "Unpaused",
      "type": "event"
    },
    {
      "inputs": [],
      "name": "AAVE_POOL",
      "outputs": [
        {
          "internalType": "address",
          "name": "",
          "type": "address"
        }
      ],
      "stateMutability": "view",
      "type": "function"
    },
    {
      "inputs": [],
      "name": "A_USDC",
      "outputs": [
        {
          "internalType": "address",
          "name": "",
          "type": "address"
        }
      ],
      "stateMutability": "view",
      "type": "function"
    },
    {
      "inputs": [],
      "name": "aToken",
      "outputs": [
        {
          "internalType": "contract IERC20",
          "name": "",
          "type": "address"
        }
      ],
      "stateMutability": "view",
      "type": "function"
    },
    {
      "inputs": [],
      "name": "asset",
      "outputs": [
        {
          "internalType": "contract IERC20",
          "name": "",
          "type": "address"
        }
      ],
      "stateMutability": "view",
      "type": "function"
    },
    {
      "inputs": [
        {
          "internalType": "uint256",
          "name": "amount",
          "type": "uint256"
        }
      ],
      "name": "deposit",
      "outputs": [],
      "stateMutability": "nonpayable",
      "type": "function"
    },
    {
      "inputs": [],
      "name": "owner",
      "outputs": [
        {
          "internalType": "address",
          "name": "",
          "type": "address"
        }
      ],
      "stateMutability": "view",
      "type": "function"
    },
    {
      "inputs": [],
      "name": "pause",
      "outputs": [],
      "stateMutability": "nonpayable",
      "type": "function"
    },
    {
      "inputs": [],
      "name": "paused",
      "outputs": [
        {
          "internalType": "bool",
          "name": "",
          "type": "bool"
        }
      ],
      "stateMutability": "view",
      "type": "function"
    },
    {
      "inputs": [],
      "name": "pool",
      "outputs": [
        {
          "internalType": "contract IAavePool",
          "name": "",
          "type": "address"
        }
      ],
      "stateMutability": "view",
      "type": "function"
    },
    {
      "inputs": [],
      "name": "renounceOwnership",
      "outputs": [],
      "stateMutability": "nonpayable",
      "type": "function"
    },
    {
      "inputs": [],
      "name": "totalAssets",
      "outputs": [
        {
          "internalType": "uint256",
          "name": "",
          "type": "uint256"
        }
      ],
      "stateMutability": "view",
      "type": "function"
    },
    {
      "inputs": [
        {
          "internalType": "address",
          "name": "newOwner",
          "type": "address"
        }
      ],
      "name": "transferOwnership",
      "outputs": [],
      "stateMutability": "nonpayable",
      "type": "function"
    },
    {
      "inputs": [],
      "name": "unpause",
      "outputs": [],
      "stateMutability": "nonpayable",
      "type": "function"
    },
    {
      "inputs": [],
      "name": "vault",
      "outputs": [
        {
          "internalType": "address",
          "name": "",
          "type": "address"
        }
      ],
      "stateMutability": "view",
      "type": "function"
    },
    {
      "inputs": [
        {
          "internalType": "uint256",
          "name": "amount",
          "type": "uint256"
        }
      ],
      "name": "withdraw",
      "outputs": [
        {
          "internalType": "uint256",
          "name": "received",
          "type": "uint256"
        }
      ],
      "stateMutability": "nonpayable",
      "type": "function"
    }
  ],
  "bytecode": "0x60c060405234801561000f575f80fd5b50604051610bbe380380610bbe83398101604081905261002e91610199565b8181338061005657604051631e4fbdf760e01b81525f60048201526024015b60405180910390fd5b61005f8161012f565b506001600160a01b0382161580159061008057506001600160a01b03811615155b6100cc5760405162461bcd60e51b815260206004820152601760248201527f5374726174656779426173653a207a65726f2061646472000000000000000000604482015260640161004d565b600280546001600160a01b039384166001600160a01b031991821617909155600180549290931691161790555050736ae43d3271ff6888e7fc43fd7321a503ff7389516080527316da4541ad1807f4443d92d26044c1147406eb8060a0526101ca565b5f80546001600160a01b038381166001600160a01b0319831681178455604051919092169283917f8be0079c531659141344cd1fd0a4f28419497f9722a3daafe3b4186f6b6457e09190a35050565b80516001600160a01b0381168114610194575f80fd5b919050565b5f80604083850312156101aa575f80fd5b6101b38361017e565b91506101c16020840161017e565b90509250929050565b60805160a0516109b76102075f395f81816101e2015261026f01525f8181610147015281816106f6015281816107fb01526108ab01526109b75ff3fe608060405234801561000f575f80fd5b50600436106100f0575f3560e01c8063715018a611610093578063b6b55f2511610063578063b6b55f2514610204578063c9d05ea114610217578063f2fde38b14610232578063fbfa77cf14610245575f80fd5b8063715018a6146101bd5780638456cb59146101c55780638da5cb5b146101cd578063a0c1f15e146101dd575f80fd5b80632e1a7d4d116100ce5780632e1a7d4d1461016957806338d52e0f1461017c5780633f4ba83a1461018f5780635c975abb14610199575f80fd5b806301e1d114146100f457806308a016751461010f57806316f0115b14610142575b5f80fd5b6100fc610258565b6040519081526020015b60405180910390f35b61012a736ae43d3271ff6888e7fc43fd7321a503ff73895181565b6040516001600160a01b039091168152602001610106565b61012a7f000000000000000000000000000000000000000000000000000000000000000081565b6100fc610177366004610907565b6102e5565b60025461012a906001600160a01b031681565b610197610445565b005b6002546101ad90600160a01b900460ff1681565b6040519015158152602001610106565b610197610484565b610197610497565b5f546001600160a01b031661012a565b61012a7f000000000000000000000000000000000000000000000000000000000000000081565b610197610212366004610907565b6104dc565b61012a7316da4541ad1807f4443d92d26044c1147406eb8081565b61019761024036600461091e565b610688565b60015461012a906001600160a01b031681565b6040516370a0823160e01b81523060048201525f907f00000000000000000000000000000000000000000000000000000000000000006001600160a01b0316906370a0823190602401602060405180830381865afa1580156102bc573d5f803e3d5ffd5b505050506040513d601f19601f820116820180604052508101906102e0919061094b565b905090565b6001545f906001600160a01b031633146103405760405162461bcd60e51b815260206004820152601760248201527614dd1c985d1959de50985cd94e881b9bdd081d985d5b1d604a1b60448201526064015b60405180910390fd5b5f821161038b5760405162461bcd60e51b815260206004820152601960248201527814dd1c985d1959de50985cd94e881e995c9bc8185b5bdd5b9d603a1b6044820152606401610337565b610394826106c5565b60025460015460405163a9059cbb60e01b81526001600160a01b03918216600482015260248101849052929350169063a9059cbb906044016020604051808303815f875af11580156103e8573d5f803e3d5ffd5b505050506040513d601f19601f8201168201806040525081019061040c9190610962565b506040518181527f88ca0f9ed7d03f5fa5d342b501a9c986b7f57eb2eec3e27f506581df69fa6eba9060200160405180910390a1919050565b61044d610766565b6002805460ff60a01b191690556040517fa45f47fdea8a1efdd9029a5691c7f759c32b7c698632b563573e155625d16933905f90a1565b61048c610766565b6104955f610792565b565b61049f610766565b6002805460ff60a01b1916600160a01b1790556040517f9e87fac88ff661f02d44f95383c817fece4bce600a3dab7a54406878b965e752905f90a1565b6001546001600160a01b031633146105305760405162461bcd60e51b815260206004820152601760248201527614dd1c985d1959de50985cd94e881b9bdd081d985d5b1d604a1b6044820152606401610337565b600254600160a01b900460ff16156105815760405162461bcd60e51b815260206004820152601460248201527314dd1c985d1959de50985cd94e881c185d5cd95960621b6044820152606401610337565b5f81116105cc5760405162461bcd60e51b815260206004820152601960248201527814dd1c985d1959de50985cd94e881e995c9bc8185b5bdd5b9d603a1b6044820152606401610337565b6002546001546040516323b872dd60e01b81526001600160a01b039182166004820152306024820152604481018490529116906323b872dd906064016020604051808303815f875af1158015610624573d5f803e3d5ffd5b505050506040513d601f19601f820116820180604052508101906106489190610962565b50610652816107e1565b6040518181527f3fd9776d3376106cc4e17a245a9b1a7e944bdb87ef4668216a0f4deec8c2d5569060200160405180910390a150565b610690610766565b6001600160a01b0381166106b957604051631e4fbdf760e01b81525f6004820152602401610337565b6106c281610792565b50565b600254604051631a4ca37b60e21b81526001600160a01b039182166004820152602481018390523060448201525f917f000000000000000000000000000000000000000000000000000000000000000016906369328dec906064016020604051808303815f875af115801561073c573d5f803e3d5ffd5b505050506040513d601f19601f82011682018060405250810190610760919061094b565b92915050565b5f546001600160a01b031633146104955760405163118cdaa760e01b8152336004820152602401610337565b5f80546001600160a01b038381166001600160a01b0319831681178455604051919092169283917f8be0079c531659141344cd1fd0a4f28419497f9722a3daafe3b4186f6b6457e09190a35050565b60025460405163095ea7b360e01b81526001600160a01b037f000000000000000000000000000000000000000000000000000000000000000081166004830152602482018490529091169063095ea7b3906044016020604051808303815f875af1158015610851573d5f803e3d5ffd5b505050506040513d601f19601f820116820180604052508101906108759190610962565b5060025460405163617ba03760e01b81526001600160a01b039182166004820152602481018390523060448201525f60648201527f00000000000000000000000000000000000000000000000000000000000000009091169063617ba037906084015f604051808303815f87803b1580156108ee575f80fd5b505af1158015610900573d5f803e3d5ffd5b5050505050565b5f60208284031215610917575f80fd5b5035919050565b5f6020828403121561092e575f80fd5b81356001600160a01b0381168114610944575f80fd5b9392505050565b5f6020828403121561095b575f80fd5b5051919050565b5f60208284031215610972575f80fd5b81518015158114610944575f80fdfea2646970667358221220460103e24c46cc1bf20b6d7808dcba91ab70830c36303b7c2c62689cdd199f4e64736f6c634300081a0033",
  "linkReferences": {},
  "deployedLinkReferences": {}
}