{
  "_format": "hh-sol-artifact-1",
  "contractName": "Harvester",
  "sourceName": "contracts/Harvester.sol",
  "abi": [
    {
      "inputs": [
        {
          "internalType": "address",
          "name": "_vault",
          "type": "address"
        }
      ],
      "stateMutability": "nonpayable",
      "type": "constructor"
    },
    {
      "inputs": [
        {
          "internalType": "address",
          "name": "owner",
          "type": "address"
        }
      ],
      "name": "OwnableInvalidOwner",
      "type": "error"
    },
    {
      "inputs": [
        {
          "internalType": "address",
          "name": "account",
          "type": "address"
        }
      ],
      "name": "OwnableUnauthorizedAccount",
      "type": "error"
    },
    {
      "anonymous": false,
      "inputs": [
        {
          "indexed": false,
          "internalType": "uint256",
          "name": "totalAssets",
          "type": "uint256"
        },
        {
          "indexed": false,
          "internalType": "uint256",
          "name": "timestamp",
          "type": "uint256"
        }
      ],
      "name": "HarvestExecuted",
      "type": "event"
    },
    {
      "anonymous": false,
      "inputs": [
        {
          "indexed": false,
          "internalType": "uint256",
          "name": "interval",
          "type": "uint256"
        }
      ],
      "name": "HarvestIntervalUpdated",
      "type": "event"
    },
    {
      "anonymous": false,
      "inputs": [
        {
          "indexed": true,
          "internalType": "address",
          "name": "previousOwner",
          "type": "address"
        },
        {
          "indexed": true,
          "internalType": "address",
          "name": "newOwner",
          "type": "address"
        }
      ],
      "name": "OwnershipTransferred",
      "type": "event"
    },
    {
      "anonymous": false,
      "inputs": [
        {
          "indexed": false,
          "internalType": "uint256[]",
          "name": "allocations",
          "type": "uint256[]"
        }
      ],
      "name": "Rebalanced",
      "type": "event"
    },
    {
      "inputs": [],
      "name": "harvest",
      "outputs": [],
      "stateMutability": "nonpayable",
      "type": "function"
    },
    {
      "inputs": [],
      "name": "harvestInterval",
      "outputs": [
        {
          "internalType": "uint256",
          "name": "",
          "type": "uint256"
        }
      ],
      "stateMutability": "view",
      "type": "function"
    },
    {
      "inputs": [],
      "name": "lastHarvestTime",
      "outputs": [
        {
          "internalType": "uint256",
          "name": "",
          "type": "uint256"
        }
      ],
      "stateMutability": "view",
      "type": "function"
    },
    {
      "inputs": [],
      "name": "owner",
      "outputs": [
        {
          "internalType": "address",
          "name": "",
          "type": "address"
        }
      ],
      "stateMutability": "view",
      "type": "function"
    },
    {
      "inputs": [
        {
          "internalType": "uint256[]",
          "name": "newAllocations",
          "type": "uint256[]"
        }
      ],
      "name": "rebalance",
      "outputs": [],
      "stateMutability": "nonpayable",
      "type": "function"
    },
    {
      "inputs": [],
      "name": "renounceOwnership",
      "outputs": [],
      "stateMutability": "nonpayable",
      "type": "function"
    },
    {
      "inputs": [
        {
          "internalType": "uint256",
          "name": "interval",
          "type": "uint256"
        }
      ],
      "name": "setHarvestInterval",
      "outputs": [],
      "stateMutability": "nonpayable",
      "type": "function"
    },
    {
      "inputs": [
        {
          "internalType": "address",
          "name": "newOwner",
          "type": "address"
        }
      ],
      "name": "transferOwnership",
      "outputs": [],
      "stateMutability": "nonpayable",
      "type": "function"
    },
    {
      "inputs": [],
      "name": "vault",
      "outputs": [
        {
          "internalType": "address",
          "name": "",
          "type": "address"
        }
      ],
      "stateMutability": "view",
      "type": "function"
    }
  ],
  "bytecode": "0x608060405262015180600355348015610016575f80fd5b5060405161076d38038061076d8339810160408190526100359161012f565b338061005b57604051631e4fbdf760e01b81525f60048201526024015b60405180910390fd5b610064816100e0565b506001600160a01b0381166100bb5760405162461bcd60e51b815260206004820152601560248201527f4861727665737465723a207a65726f207661756c7400000000000000000000006044820152606401610052565b600180546001600160a01b0319166001600160a01b039290921691909117905561015c565b5f80546001600160a01b038381166001600160a01b0319831681178455604051919092169283917f8be0079c531659141344cd1fd0a4f28419497f9722a3daafe3b4186f6b6457e09190a35050565b5f6020828403121561013f575f80fd5b81516001600160a01b0381168114610155575f80fd5b9392505050565b610604806101695f395ff3fe608060405234801561000f575f80fd5b5060043610610090575f3560e01c8063780d571011610063578063780d5710146100d55780638da5cb5b146100e8578063ceb0f6261461010c578063f2fde38b14610115578063fbfa77cf14610128575f80fd5b806314dc0ce01461009457806338d7aae1146100b05780634641257d146100c5578063715018a6146100cd575b5f80fd5b61009d60035481565b6040519081526020015b60405180910390f35b6100c36100be366004610492565b61013b565b005b6100c361017f565b6100c3610297565b6100c36100e33660046104a9565b6102aa565b5f546001600160a01b03165b6040516001600160a01b0390911681526020016100a7565b61009d60025481565b6100c361012336600461051a565b6103da565b6001546100f4906001600160a01b031681565b610143610417565b60038190556040518181527fefbb9d3ecdfad13be210badd6353e06085e8263e4d421142b102e162aa4b9c6c906020015b60405180910390a150565b60035460025461018f9190610547565b421015806101a657505f546001600160a01b031633145b6101ed5760405162461bcd60e51b81526020600482015260136024820152722430b93b32b9ba32b91d1031b7b7b63237bbb760691b60448201526064015b60405180910390fd5b600154604080516278744560e21b815290515f926001600160a01b0316916301e1d1149160048083019260209291908290030181865afa158015610233573d5f803e3d5ffd5b505050506040513d601f19601f82011682018060405250810190610257919061056c565b4260028190556040519192507f9b56b02b13f35dd3a3470be3fc372bf81aa8bcdb2f549f6daf74a37cead070299161017491848252602082015260400190565b61029f610417565b6102a85f610443565b565b6102b2610417565b5f805b828110156102eb578383828181106102cf576102cf610583565b90506020020135826102e19190610547565b91506001016102b5565b50806127101461033d5760405162461bcd60e51b815260206004820152601a60248201527f4861727665737465723a2062616420616c6c6f636174696f6e7300000000000060448201526064016101e4565b600154604051630780d57160e41b81526001600160a01b039091169063780d57109061036f9086908690600401610597565b5f604051808303815f87803b158015610386575f80fd5b505af1158015610398573d5f803e3d5ffd5b505050507ffcb8bc541177a79b59ab44a95da10cf67d66810b97fa948bc85f05b8f256f09a83836040516103cd929190610597565b60405180910390a1505050565b6103e2610417565b6001600160a01b03811661040b57604051631e4fbdf760e01b81525f60048201526024016101e4565b61041481610443565b50565b5f546001600160a01b031633146102a85760405163118cdaa760e01b81523360048201526024016101e4565b5f80546001600160a01b038381166001600160a01b0319831681178455604051919092169283917f8be0079c531659141344cd1fd0a4f28419497f9722a3daafe3b4186f6b6457e09190a35050565b5f602082840312156104a2575f80fd5b5035919050565b5f80602083850312156104ba575f80fd5b823567ffffffffffffffff8111156104d0575f80fd5b8301601f810185136104e0575f80fd5b803567ffffffffffffffff8111156104f6575f80fd5b8560208260051b840101111561050a575f80fd5b6020919091019590945092505050565b5f6020828403121561052a575f80fd5b81356001600160a01b0381168114610540575f80fd5b9392505050565b8082018082111561056657634e487b7160e01b5f52601160045260245ffd5b92915050565b5f6020828403121561057c575f80fd5b5051919050565b634e487b7160e01b5f52603260045260245ffd5b602080825281018290525f6001600160fb1b038311156105b5575f80fd5b8260051b8085604085013791909101604001939250505056fea2646970667358221220d3eb7cfd3f6f8f7748370193315d347c7a27b33fa76edf42d619f785bf62926764736f6c634300081a0033",
  "linkReferences": {},
  "deployedLinkReferences": {}
}