{"contracts/strategies/CompoundStrategy.sol":{"CompoundStrategy":{"abi":[{"inputs":[{"internalType":"address","name":"_asset","type":"address"},{"internalType":"address","name":"_vault","type":"address"}],"stateMutability":"nonpayable","type":"constructor"},{"inputs":[{"internalType":"address","name":"owner","type":"address"}],"name":"OwnableInvalidOwner","type":"error"},{"inputs":[{"internalType":"address","name":"account","type":"address"}],"name":"OwnableUnauthorizedAccount","type":"error"},{"anonymous":false,"inputs":[{"indexed":true,"internalType":"address","name":"previousOwner","type":"address"},{"indexed":true,"internalType":"address","name":"newOwner","type":"address"}],"name":"OwnershipTransferred","type":"event"},{"anonymous":false,"inputs":[],"name":"Paused","type":"event"},{"anonymous":false,"inputs":[{"indexed":false,"internalType":"uint256","name":"amount","type":"uint256"}],"name":"StrategyDeposit","type":"event"},{"anonymous":false,"inputs":[{"indexed":false,"internalType":"uint256","name":"amount","type":"uint256"}],"name":"StrategyWithdraw","type":"event"},{"anonymous":false,"inputs":[],"name":"Unpaused","type":"event"},{"inputs":[],"name":"COMET_USDC","outputs":[{"internalType":"address","name":"","type":"address"}],"stateMutability":"view","type":"function"},{"inputs":[],"name":"asset","outputs":[{"internalType":"contract IERC20","name":"","type":"address"}],"stateMutability":"view","type":"function"},{"inputs":[],"name":"comet","outputs":[{"internalType":"contract IComet","name":"","type":"address"}],"stateMutability":"view","type":"function"},{"inputs":[{"internalType":"uint256","name":"amount","type":"uint256"}],"name":"deposit","outputs":[],"stateMutability":"nonpayable","type":"function"},{"inputs":[],"name":"owner","outputs":[{"internalType":"address","name":"","type":"address"}],"stateMutability":"view","type":"function"},{"inputs":[],"name":"pause","outputs":[],"stateMutability":"nonpayable","type":"function"},{"inputs":[],"name":"paused","outputs":[{"internalType":"bool","name":"","type":"bool"}],"stateMutability":"view","type":"function"},{"inputs":[],"name":"renounceOwnership","outputs":[],"stateMutability":"nonpayable","type":"function"},{"inputs":[],"name":"totalAssets","outputs":[{"internalType":"uint256","name":"","type":"uint256"}],"stateMutability":"view","type":"function"},{"inputs":[{"internalType":"address","name":"newOwner","type":"address"}],"name":"transferOwnership","outputs":[],"stateMutability":"nonpayable","type":"function"},{"inputs":[],"name":"unpause","outputs":[],"stateMutability":"nonpayable","type":"function"},{"inputs":[],"name":"vault","outputs":[{"internalType":"address","name":"","type":"address"}],"stateMutability":"view","type":"function"},{"inputs":[{"internalType":"uint256","name":"amount","type":"uint256"}],"name":"withdraw","outputs":[{"internalType":"uint256","name":"received","type":"uint256"}],"stateMutability":"nonpayable","type":"function"}],"evm":{"bytecode":{"linkReferences":{},"object":"60a060405234801561000f575f80fd5b50604051610b11380380610b1183398101604081905261002e91610181565b8181338061005657604051631e4fbdf760e01b81525f60048201526024015b60405180910390fd5b61005f81610117565b506001600160a01b0382161580159061008057506001600160a01b03811615155b6100cc5760405162461bcd60e51b815260206004820152601760248201527f5374726174656779426173653a207a65726f2061646472000000000000000000604482015260640161004d565b600280546001600160a01b039384166001600160a01b03199182161790915560018054929093169116179055505073aec1f48e02cfb822be958b68c7957156eb3f0b6e6080526101b2565b5f80546001600160a01b038381166001600160a01b0319831681178455604051919092169283917f8be0079c531659141344cd1fd0a4f28419497f9722a3daafe3b4186f6b6457e09190a35050565b80516001600160a01b038116811461017c575f80fd5b919050565b5f8060408385031215610192575f80fd5b61019b83610166565b91506101a960208401610166565b90509250929050565b60805161092b6101e65f395f81816101a901528181610208015281816106890152818161077b015261081f015261092b5ff3fe608060405234801561000f575f80fd5b50600436106100cb575f3560e01c8063715018a611610088578063b6b55f2511610063578063b6b55f2514610191578063ba3e9c12146101a4578063f2fde38b146101cb578063fbfa77cf146101de575f80fd5b8063715018a6146101715780638456cb59146101795780638da5cb5b14610181575f80fd5b806301e1d114146100cf5780632e1a7d4d146100ea57806338d52e0f146100fd5780633f4ba83a146101285780634166cc10146101325780635c975abb1461014d575b5f80fd5b6100d76101f1565b6040519081526020015b60405180910390f35b6100d76100f836600461087b565b61027e565b600254610110906001600160a01b031681565b6040516001600160a01b0390911681526020016100e1565b6101306103de565b005b61011073aec1f48e02cfb822be958b68c7957156eb3f0b6e81565b60025461016190600160a01b900460ff1681565b60405190151581526020016100e1565b61013061041d565b610130610430565b5f546001600160a01b0316610110565b61013061019f36600461087b565b610475565b6101107f000000000000000000000000000000000000000000000000000000000000000081565b6101306101d9366004610892565b610621565b600154610110906001600160a01b031681565b6040516370a0823160e01b81523060048201525f907f00000000000000000000000000000000000000000000000000000000000000006001600160a01b0316906370a0823190602401602060405180830381865afa158015610255573d5f803e3d5ffd5b505050506040513d601f19601f8201168201806040525081019061027991906108bf565b905090565b6001545f906001600160a01b031633146102d95760405162461bcd60e51b815260206004820152601760248201527614dd1c985d1959de50985cd94e881b9bdd081d985d5b1d604a1b60448201526064015b60405180910390fd5b5f82116103245760405162461bcd60e51b815260206004820152601960248201527814dd1c985d1959de50985cd94e881e995c9bc8185b5bdd5b9d603a1b60448201526064016102d0565b61032d8261065e565b60025460015460405163a9059cbb60e01b81526001600160a01b03918216600482015260248101849052929350169063a9059cbb906044016020604051808303815f875af1158015610381573d5f803e3d5ffd5b505050506040513d601f19601f820116820180604052508101906103a591906108d6565b506040518181527f88ca0f9ed7d03f5fa5d342b501a9c986b7f57eb2eec3e27f506581df69fa6eba9060200160405180910390a1919050565b6103e66106e6565b6002805460ff60a01b191690556040517fa45f47fdea8a1efdd9029a5691c7f759c32b7c698632b563573e155625d16933905f90a1565b6104256106e6565b61042e5f610712565b565b6104386106e6565b6002805460ff60a01b1916600160a01b1790556040517f9e87fac88ff661f02d44f95383c817fece4bce600a3dab7a54406878b965e752905f90a1565b6001546001600160a01b031633146104c95760405162461bcd60e51b815260206004820152601760248201527614dd1c985d1959de50985cd94e881b9bdd081d985d5b1d604a1b60448201526064016102d0565b600254600160a01b900460ff161561051a5760405162461bcd60e51b815260206004820152601460248201527314dd1c985d1959de50985cd94e881c185d5cd95960621b60448201526064016102d0565b5f81116105655760405162461bcd60e51b815260206004820152601960248201527814dd1c985d1959de50985cd94e881e995c9bc8185b5bdd5b9d603a1b60448201526064016102d0565b6002546001546040516323b872dd60e01b81526001600160a01b039182166004820152306024820152604481018490529116906323b872dd906064016020604051808303815f875af11580156105bd573d5f803e3d5ffd5b505050506040513d601f19601f820116820180604052508101906105e191906108d6565b506105eb81610761565b6040518181527f3fd9776d3376106cc4e17a245a9b1a7e944bdb87ef4668216a0f4deec8c2d5569060200160405180910390a150565b6106296106e6565b6001600160a01b03811661065257604051631e4fbdf760e01b81525f60048201526024016102d0565b61065b81610712565b50565b60025460405163f3fef3a360e01b81526001600160a01b039182166004820152602481018390525f917f0000000000000000000000000000000000000000000000000000000000000000169063f3fef3a3906044015f604051808303815f87803b1580156106ca575f80fd5b505af11580156106dc573d5f803e3d5ffd5b5093949350505050565b5f546001600160a01b0316331461042e5760405163118cdaa760e01b81523360048201526024016102d0565b5f80546001600160a01b038381166001600160a01b0319831681178455604051919092169283917f8be0079c531659141344cd1fd0a4f28419497f9722a3daafe3b4186f6b6457e09190a35050565b60025460405163095ea7b360e01b81526001600160a01b037f000000000000000000000000000000000000000000000000000000000000000081166004830152602482018490529091169063095ea7b3906044016020604051808303815f875af11580156107d1573d5f803e3d5ffd5b505050506040513d601f19601f820116820180604052508101906107f591906108d6565b50600254604051631e573fb760e31b81526001600160a01b039182166004820152602481018390527f00000000000000000000000000000000000000000000000000000000000000009091169063f2b9fdb8906044015f604051808303815f87803b158015610862575f80fd5b505af1158015610874573d5f803e3d5ffd5b5050505050565b5f6020828403121561088b575f80fd5b5035919050565b5f602082840312156108a2575f80fd5b81356001600160a01b03811681146108b8575f80fd5b9392505050565b5f602082840312156108cf575f80fd5b5051919050565b5f602082840312156108e6575f80fd5b815180151581146108b8575f80fdfea264697066735822122085b27490333497846e5ac4903a1f9e2a42eb08c90ae144120c31ce9c3f0f3b3564736f6c634300081a0033","opcodes":"PUSH1 0xA0 PUSH1 0x40 MSTORE CALLVALUE DUP1 ISZERO PUSH2 0xF JUMPI PUSH0 DUP1 REVERT JUMPDEST POP PUSH1 0x40 MLOAD PUSH2 0xB11 CODESIZE SUB DUP1 PUSH2 0xB11 DUP4 CODECOPY DUP2 ADD PUSH1 0x40 DUP2 SWAP1 MSTORE PUSH2 0x2E SWAP2 PUSH2 0x181 JUMP JUMPDEST DUP2 DUP2 CALLER DUP1 PUSH2 0x56 JUMPI PUSH1 0x40 MLOAD PUSH4 0x1E4FBDF7 PUSH1 0xE0 SHL DUP2 MSTORE PUSH0 PUSH1 0x4 DUP3 ADD MSTORE PUSH1 0x24 ADD JUMPDEST PUSH1 0x40 MLOAD DUP1 SWAP2 SUB SWAP1 REVERT JUMPDEST PUSH2 0x5F DUP2 PUSH2 0x117 JUMP JUMPDEST POP PUSH1 0x1 PUSH1 0x1 PUSH1 0xA0 SHL SUB DUP3 AND ISZERO DUP1 ISZERO SWAP1 PUSH2 0x80 JUMPI POP PUSH1 0x1 PUSH1 0x1 PUSH1 0xA0 SHL SUB DUP2 AND ISZERO ISZERO JUMPDEST PUSH2 0xCC JUMPI PUSH1 0x40 MLOAD PUSH3 0x461BCD PUSH1 0xE5 SHL DUP2 MSTORE PUSH1 0x20 PUSH1 0x4 DUP3 ADD MSTORE PUSH1 0x17 PUSH1 0x24 DUP3 ADD MSTORE PUSH32 0x5374726174656779426173653A207A65726F2061646472000000000000000000 PUSH1 0x44 DUP3 ADD MSTORE PUSH1 0x64 ADD PUSH2 0x4D JUMP JUMPDEST PUSH1 0x2 DUP1 SLOAD PUSH1 0x1 PUSH1 0x1 PUSH1 0xA0 SHL SUB SWAP4 DUP5 AND PUSH1 0x1 PUSH1 0x1 PUSH1 0xA0 SHL SUB NOT SWAP2 DUP3 AND OR SWAP1 SWAP2 SSTORE PUSH1 0x1 DUP1 SLOAD SWAP3 SWAP1 SWAP4 AND SWAP2 AND OR SWAP1 SSTORE POP POP PUSH20 0xAEC1F48E02CFB822BE958B68C7957156EB3F0B6E PUSH1 0x80 MSTORE PUSH2 0x1B2 JUMP JUMPDEST PUSH0 DUP1 SLOAD PUSH1 0x1 PUSH1 0x1 PUSH1 0xA0 SHL SUB DUP4 DUP2 AND PUSH1 0x1 PUSH1 0x1 PUSH1 0xA0 SHL SUB NOT DUP4 AND DUP2 OR DUP5 SSTORE PUSH1 0x40 MLOAD SWAP2 SWAP1 SWAP3 AND SWAP3 DUP4 SWAP2 PUSH32 0x8BE0079C531659141344CD1FD0A4F28419497F9722A3DAAFE3B4186F6B6457E0 SWAP2 SWAP1 LOG3 POP POP JUMP JUMPDEST DUP1 MLOAD PUSH1 0x1 PUSH1 0x1 PUSH1 0xA0 SHL SUB DUP2 AND DUP2 EQ PUSH2 0x17C JUMPI PUSH0 DUP1 REVERT JUMPDEST SWAP2 SWAP1 POP JUMP JUMPDEST PUSH0 DUP1 PUSH1 0x40 DUP4 DUP6 SUB SLT ISZERO PUSH2 0x192 JUMPI PUSH0 DUP1 REVERT JUMPDEST PUSH2 0x19B DUP4 PUSH2 0x166 JUMP JUMPDEST SWAP2 POP PUSH2 0x1A9 PUSH1 0x20 DUP5 ADD PUSH2 0x166 JUMP JUMPDEST SWAP1 POP SWAP3 POP SWAP3 SWAP1 POP JUMP JUMPDEST PUSH1 0x80 MLOAD PUSH2 0x92B PUSH2 0x1E6 PUSH0 CODECOPY PUSH0 DUP2 DUP2 PUSH2 0x1A9 ADD MSTORE DUP2 DUP2 PUSH2 0x208 ADD MSTORE DUP2 DUP2 PUSH2 0x689 ADD MSTORE DUP2 DUP2 PUSH2 0x77B ADD MSTORE PUSH2 0x81F ADD MSTORE PUSH2 0x92B PUSH0 RETURN INVALID PUSH1 0x80 PUSH1 0x40 MSTORE CALLVALUE DUP1 ISZERO PUSH2 0xF JUMPI PUSH0 DUP1 REVERT JUMPDEST POP PUSH1 0x4 CALLDATASIZE LT PUSH2 0xCB JUMPI PUSH0 CALLDATALOAD PUSH1 0xE0 SHR DUP1 PUSH4 0x715018A6 GT PUSH2 0x88 JUMPI DUP1 PUSH4 0xB6B55F25 GT PUSH2 0x63 JUMPI DUP1 PUSH4 0xB6B55F25 EQ PUSH2 0x191 JUMPI DUP1 PUSH4 0xBA3E9C12 EQ PUSH2 0x1A4 JUMPI DUP1 PUSH4 0xF2FDE38B EQ PUSH2 0x1CB JUMPI DUP1 PUSH4 0xFBFA77CF EQ PUSH2 0x1DE JUMPI PUSH0 DUP1 REVERT JUMPDEST DUP1 PUSH4 0x715018A6 EQ PUSH2 0x171 JUMPI DUP1 PUSH4 0x8456CB59 EQ PUSH2 0x179 JUMPI DUP1 PUSH4 0x8DA5CB5B EQ PUSH2 0x181 JUMPI PUSH0 DUP1 REVERT JUMPDEST DUP1 PUSH4 0x1E1D114 EQ PUSH2 0xCF JUMPI DUP1 PUSH4 0x2E1A7D4D EQ PUSH2 0xEA JUMPI DUP1 PUSH4 0x38D52E0F EQ PUSH2 0xFD JUMPI DUP1 PUSH4 0x3F4BA83A EQ PUSH2 0x128 JUMPI DUP1 PUSH4 0x4166CC10 EQ PUSH2 0x132 JUMPI DUP1 PUSH4 0x5C975ABB EQ PUSH2 0x14D JUMPI JUMPDEST PUSH0 DUP1 REVERT JUMPDEST PUSH2 0xD7 PUSH2 0x1F1 JUMP JUMPDEST PUSH1 0x40 MLOAD SWAP1 DUP2 MSTORE PUSH1 0x20 ADD JUMPDEST PUSH1 0x40 MLOAD DUP1 SWAP2 SUB SWAP1 RETURN JUMPDEST PUSH2 0xD7 PUSH2 0xF8 CALLDATASIZE PUSH1 0x4 PUSH2 0x87B JUMP JUMPDEST PUSH2 0x27E JUMP JUMPDEST PUSH1 0x2 SLOAD PUSH2 0x110 SWAP1 PUSH1 0x1 PUSH1 0x1 PUSH1 0xA0 SHL SUB AND DUP2 JUMP JUMPDEST PUSH1 0x40 MLOAD PUSH1 0x1 PUSH1 0x1 PUSH1 0xA0 SHL SUB SWAP1 SWAP2 AND DUP2 MSTORE PUSH1 0x20 ADD PUSH2 0xE1 JUMP JUMPDEST PUSH2 0x130 PUSH2 0x3DE JUMP JUMPDEST STOP JUMPDEST PUSH2 0x110 PUSH20 0xAEC1F48E02CFB822BE958B68C7957156EB3F0B6E DUP2 JUMP JUMPDEST PUSH1 0x2 SLOAD PUSH2 0x161 SWAP1 PUSH1 0x1 PUSH1 0xA0 SHL SWAP1 DIV PUSH1 0xFF AND DUP2 JUMP JUMPDEST PUSH1 0x40 MLOAD SWAP1 ISZERO ISZERO DUP2 MSTORE PUSH1 0x20 ADD PUSH2 0xE1 JUMP JUMPDEST PUSH2 0x130 PUSH2 0x41D JUMP JUMPDEST PUSH2 0x130 PUSH2 0x430 JUMP JUMPDEST PUSH0 SLOAD PUSH1 0x1 PUSH1 0x1 PUSH1 0xA0 SHL SUB AND PUSH2 0x110 JUMP JUMPDEST PUSH2 0x130 PUSH2 0x19F CALLDATASIZE PUSH1 0x4 PUSH2 0x87B JUMP JUMPDEST PUSH2 0x475 JUMP JUMPDEST PUSH2 0x110 PUSH32 0x0 DUP2 JUMP JUMPDEST PUSH2 0x130 PUSH2 0x1D9 CALLDATASIZE PUSH1 0x4 PUSH2 0x892 JUMP JUMPDEST PUSH2 0x621 JUMP JUMPDEST PUSH1 0x1 SLOAD PUSH2 0x110 SWAP1 PUSH1 0x1 PUSH1 0x1 PUSH1 0xA0 SHL SUB AND DUP2 JUMP JUMPDEST PUSH1 0x40 MLOAD PUSH4 0x70A08231 PUSH1 0xE0 SHL DUP2 MSTORE ADDRESS PUSH1 0x4 DUP3 ADD MSTORE PUSH0 SWAP1 PUSH32 0x0 PUSH1 0x1 PUSH1 0x1 PUSH1 0xA0 SHL SUB AND SWAP1 PUSH4 0x70A08231 SWAP1 PUSH1 0x24 ADD PUSH1 0x20 PUSH1 0x40 MLOAD DUP1 DUP4 SUB DUP2 DUP7 GAS STATICCALL ISZERO DUP1 ISZERO PUSH2 0x255 JUMPI RETURNDATASIZE PUSH0 DUP1 RETURNDATACOPY RETURNDATASIZE PUSH0 REVERT JUMPDEST POP POP POP POP PUSH1 0x40 MLOAD RETURNDATASIZE PUSH1 0x1F NOT PUSH1 0x1F DUP3 ADD AND DUP3 ADD DUP1 PUSH1 0x40 MSTORE POP DUP2 ADD SWAP1 PUSH2 0x279 SWAP2 SWAP1 PUSH2 0x8BF JUMP JUMPDEST SWAP1 POP SWAP1 JUMP JUMPDEST PUSH1 0x1 SLOAD PUSH0 SWAP1 PUSH1 0x1 PUSH1 0x1 PUSH1 0xA0 SHL SUB AND CALLER EQ PUSH2 0x2D9 JUMPI PUSH1 0x40 MLOAD PUSH3 0x461BCD PUSH1 0xE5 SHL DUP2 MSTORE PUSH1 0x20 PUSH1 0x4 DUP3 ADD MSTORE PUSH1 0x17 PUSH1 0x24 DUP3 ADD MSTORE PUSH23 0x14DD1C985D1959DE50985CD94E881B9BDD081D985D5B1D PUSH1 0x4A SHL PUSH1 0x44 DUP3 ADD MSTORE PUSH1 0x64 ADD JUMPDEST PUSH1 0x40 MLOAD DUP1 SWAP2 SUB SWAP1 REVERT JUMPDEST PUSH0 DUP3 GT PUSH2 0x324 JUMPI PUSH1 0x40 MLOAD PUSH3 0x461BCD PUSH1 0xE5 SHL DUP2 MSTORE PUSH1 0x20 PUSH1 0x4 DUP3 ADD MSTORE PUSH1 0x19 PUSH1 0x24 DUP3 ADD MSTORE PUSH25 0x14DD1C985D1959DE50985CD94E881E995C9BC8185B5BDD5B9D PUSH1 0x3A SHL PUSH1 0x44 DUP3 ADD MSTORE PUSH1 0x64 ADD PUSH2 0x2D0 JUMP JUMPDEST PUSH2 0x32D DUP3 PUSH2 0x65E JUMP JUMPDEST PUSH1 0x2 SLOAD PUSH1 0x1 SLOAD PUSH1 0x40 MLOAD PUSH4 0xA9059CBB PUSH1 0xE0 SHL DUP2 MSTORE PUSH1 0x1 PUSH1 0x1 PUSH1 0xA0 SHL SUB SWAP2 DUP3 AND PUSH1 0x4 DUP3 ADD MSTORE PUSH1 0x24 DUP2 ADD DUP5 SWAP1 MSTORE SWAP3 SWAP4 POP AND SWAP1 PUSH4 0xA9059CBB SWAP1 PUSH1 0x44 ADD PUSH1 0x20 PUSH1 0x40 MLOAD DUP1 DUP4 SUB DUP2 PUSH0 DUP8 GAS CALL ISZERO DUP1 ISZERO PUSH2 0x381 JUMPI RETURNDATASIZE PUSH0 DUP1 RETURNDATACOPY RETURNDATASIZE PUSH0 REVERT JUMPDEST POP POP POP POP PUSH1 0x40 MLOAD RETURNDATASIZE PUSH1 0x1F NOT PUSH1 0x1F DUP3 ADD AND DUP3 ADD DUP1 PUSH1 0x40 MSTORE POP DUP2 ADD SWAP1 PUSH2 0x3A5 SWAP2 SWAP1 PUSH2 0x8D6 JUMP JUMPDEST POP PUSH1 0x40 MLOAD DUP2 DUP2 MSTORE PUSH32 0x88CA0F9ED7D03F5FA5D342B501A9C986B7F57EB2EEC3E27F506581DF69FA6EBA SWAP1 PUSH1 0x20 ADD PUSH1 0x40 MLOAD DUP1 SWAP2 SUB SWAP1 LOG1 SWAP2 SWAP1 POP JUMP JUMPDEST PUSH2 0x3E6 PUSH2 0x6E6 JUMP JUMPDEST PUSH1 0x2 DUP1 SLOAD PUSH1 0xFF PUSH1 0xA0 SHL NOT AND SWAP1 SSTORE PUSH1 0x40 MLOAD PUSH32 0xA45F47FDEA8A1EFDD9029A5691C7F759C32B7C698632B563573E155625D16933 SWAP1 PUSH0 SWAP1 LOG1 JUMP JUMPDEST PUSH2 0x425 PUSH2 0x6E6 JUMP JUMPDEST PUSH2 0x42E PUSH0 PUSH2 0x712 JUMP JUMPDEST JUMP JUMPDEST PUSH2 0x438 PUSH2 0x6E6 JUMP JUMPDEST PUSH1 0x2 DUP1 SLOAD PUSH1 0xFF PUSH1 0xA0 SHL NOT AND PUSH1 0x1 PUSH1 0xA0 SHL OR SWAP1 SSTORE PUSH1 0x40 MLOAD PUSH32 0x9E87FAC88FF661F02D44F95383C817FECE4BCE600A3DAB7A54406878B965E752 SWAP1 PUSH0 SWAP1 LOG1 JUMP JUMPDEST PUSH1 0x1 SLOAD PUSH1 0x1 PUSH1 0x1 PUSH1 0xA0 SHL SUB AND CALLER EQ PUSH2 0x4C9 JUMPI PUSH1 0x40 MLOAD PUSH3 0x461BCD PUSH1 0xE5 SHL DUP2 MSTORE PUSH1 0x20 PUSH1 0x4 DUP3 ADD MSTORE PUSH1 0x17 PUSH1 0x24 DUP3 ADD MSTORE PUSH23 0x14DD1C985D1959DE50985CD94E881B9BDD081D985D5B1D PUSH1 0x4A SHL PUSH1 0x44 DUP3 ADD MSTORE PUSH1 0x64 ADD PUSH2 0x2D0 JUMP JUMPDEST PUSH1 0x2 SLOAD PUSH1 0x1 PUSH1 0xA0 SHL SWAP1 DIV PUSH1 0xFF AND ISZERO PUSH2 0x51A JUMPI PUSH1 0x40 MLOAD PUSH3 0x461BCD PUSH1 0xE5 SHL DUP2 MSTORE PUSH1 0x20 PUSH1 0x4 DUP3 ADD MSTORE PUSH1 0x14 PUSH1 0x24 DUP3 ADD MSTORE PUSH20 0x14DD1C985D1959DE50985CD94E881C185D5CD959 PUSH1 0x62 SHL PUSH1 0x44 DUP3 ADD MSTORE PUSH1 0x64 ADD PUSH2 0x2D0 JUMP JUMPDEST PUSH0 DUP2 GT PUSH2 0x565 JUMPI PUSH1 0x40 MLOAD PUSH3 0x461BCD PUSH1 0xE5 SHL DUP2 MSTORE PUSH1 0x20 PUSH1 0x4 DUP3 ADD MSTORE PUSH1 0x19 PUSH1 0x24 DUP3 ADD MSTORE PUSH25 0x14DD1C985D1959DE50985CD94E881E995C9BC8185B5BDD5B9D PUSH1 0x3A SHL PUSH1 0x44 DUP3 ADD MSTORE PUSH1 0x64 ADD PUSH2 0x2D0 JUMP JUMPDEST PUSH1 0x2 SLOAD PUSH1 0x1 SLOAD PUSH1 0x40 MLOAD PUSH4 0x23B872DD PUSH1 0xE0 SHL DUP2 MSTORE PUSH1 0x1 PUSH1 0x1 PUSH1 0xA0 SHL SUB SWAP2 DUP3 AND PUSH1 0x4 DUP3 ADD MSTORE ADDRESS PUSH1 0x24 DUP3 ADD MSTORE PUSH1 0x44 DUP2 ADD DUP5 SWAP1 MSTORE SWAP2 AND SWAP1 PUSH4 0x23B872DD SWAP1 PUSH1 0x64 ADD PUSH1 0x20 PUSH1 0x40 MLOAD DUP1 DUP4 SUB DUP2 PUSH0 DUP8 GAS CALL ISZERO DUP1 ISZERO PUSH2 0x5BD JUMPI RETURNDATASIZE PUSH0 DUP1 RETURNDATACOPY RETURNDATASIZE PUSH0 REVERT JUMPDEST POP POP POP POP PUSH1 0x40 MLOAD RETURNDATASIZE PUSH1 0x1F NOT PUSH1 0x1F DUP3 ADD AND DUP3 ADD DUP1 PUSH1 0x40 MSTORE POP DUP2 ADD SWAP1 PUSH2 0x5E1 SWAP2 SWAP1 PUSH2 0x8D6 JUMP JUMPDEST POP PUSH2 0x5EB DUP2 PUSH2 0x761 JUMP JUMPDEST PUSH1 0x40 MLOAD DUP2 DUP2 MSTORE PUSH32 0x3FD9776D3376106CC4E17A245A9B1A7E944BDB87EF4668216A0F4DEEC8C2D556 SWAP1 PUSH1 0x20 ADD PUSH1 0x40 MLOAD DUP1 SWAP2 SUB SWAP1 LOG1 POP JUMP JUMPDEST PUSH2 0x629 PUSH2 0x6E6 JUMP JUMPDEST PUSH1 0x1 PUSH1 0x1 PUSH1 0xA0 SHL SUB DUP2 AND PUSH2 0x652 JUMPI PUSH1 0x40 MLOAD PUSH4 0x1E4FBDF7 PUSH1 0xE0 SHL DUP2 MSTORE PUSH0 PUSH1 0x4 DUP3 ADD MSTORE PUSH1 0x24 ADD PUSH2 0x2D0 JUMP JUMPDEST PUSH2 0x65B DUP2 PUSH2 0x712 JUMP JUMPDEST POP JUMP JUMPDEST PUSH1 0x2 SLOAD PUSH1 0x40 MLOAD PUSH4 0xF3FEF3A3 PUSH1 0xE0 SHL DUP2 MSTORE PUSH1 0x1 PUSH1 0x1 PUSH1 0xA0 SHL SUB SWAP2 DUP3 AND PUSH1 0x4 DUP3 ADD MSTORE PUSH1 0x24 DUP2 ADD DUP4 SWAP1 MSTORE PUSH0 SWAP2 PUSH32 0x0 AND SWAP1 PUSH4 0xF3FEF3A3 SWAP1 PUSH1 0x44 ADD PUSH0 PUSH1 0x40 MLOAD DUP1 DUP4 SUB DUP2 PUSH0 DUP8 DUP1 EXTCODESIZE ISZERO DUP1 ISZERO PUSH2 0x6CA JUMPI PUSH0 DUP1 REVERT JUMPDEST POP GAS CALL ISZERO DUP1 ISZERO PUSH2 0x6DC JUMPI RETURNDATASIZE PUSH0 DUP1 RETURNDATACOPY RETURNDATASIZE PUSH0 REVERT JUMPDEST POP SWAP4 SWAP5 SWAP4 POP POP POP POP JUMP JUMPDEST PUSH0 SLOAD PUSH1 0x1 PUSH1 0x1 PUSH1 0xA0 SHL SUB AND CALLER EQ PUSH2 0x42E JUMPI PUSH1 0x40 MLOAD PUSH4 0x118CDAA7 PUSH1 0xE0 SHL DUP2 MSTORE CALLER PUSH1 0x4 DUP3 ADD MSTORE PUSH1 0x24 ADD PUSH2 0x2D0 JUMP JUMPDEST PUSH0 DUP1 SLOAD PUSH1 0x1 PUSH1 0x1 PUSH1 0xA0 SHL SUB DUP4 DUP2 AND PUSH1 0x1 PUSH1 0x1 PUSH1 0xA0 SHL SUB NOT DUP4 AND DUP2 OR DUP5 SSTORE PUSH1 0x40 MLOAD SWAP2 SWAP1 SWAP3 AND SWAP3 DUP4 SWAP2 PUSH32 0x8BE0079C531659141344CD1FD0A4F28419497F9722A3DAAFE3B4186F6B6457E0 SWAP2 SWAP1 LOG3 POP POP JUMP JUMPDEST PUSH1 0x2 SLOAD PUSH1 0x40 MLOAD PUSH4 0x95EA7B3 PUSH1 0xE0 SHL DUP2 MSTORE PUSH1 0x1 PUSH1 0x1 PUSH1 0xA0 SHL SUB PUSH32 0x0 DUP2 AND PUSH1 0x4 DUP4 ADD MSTORE PUSH1 0x24 DUP3 ADD DUP5 SWAP1 MSTORE SWAP1 SWAP2 AND SWAP1 PUSH4 0x95EA7B3 SWAP1 PUSH1 0x44 ADD PUSH1 0x20 PUSH1 0x40 MLOAD DUP1 DUP4 SUB DUP2 PUSH0 DUP8 GAS CALL ISZERO DUP1 ISZERO PUSH2 0x7D1 JUMPI RETURNDATASIZE PUSH0 DUP1 RETURNDATACOPY RETURNDATASIZE PUSH0 REVERT JUMPDEST POP POP POP POP PUSH1 0x40 MLOAD RETURNDATASIZE PUSH1 0x1F NOT PUSH1 0x1F DUP3 ADD AND DUP3 ADD DUP1 PUSH1 0x40 MSTORE POP DUP2 ADD SWAP1 PUSH2 0x7F5 SWAP2 SWAP1 PUSH2 0x8D6 JUMP JUMPDEST POP PUSH1 0x2 SLOAD PUSH1 0x40 MLOAD PUSH4 0x1E573FB7 PUSH1 0xE3 SHL DUP2 MSTORE PUSH1 0x1 PUSH1 0x1 PUSH1 0xA0 SHL SUB SWAP2 DUP3 AND PUSH1 0x4 DUP3 ADD MSTORE PUSH1 0x24 DUP2 ADD DUP4 SWAP1 MSTORE PUSH32 0x0 SWAP1 SWAP2 AND SWAP1 PUSH4 0xF2B9FDB8 SWAP1 PUSH1 0x44 ADD PUSH0 PUSH1 0x40 MLOAD DUP1 DUP4 SUB DUP2 PUSH0 DUP8 DUP1 EXTCODESIZE ISZERO DUP1 ISZERO PUSH2 0x862 JUMPI PUSH0 DUP1 REVERT JUMPDEST POP GAS CALL ISZERO DUP1 ISZERO PUSH2 0x874 JUMPI RETURNDATASIZE PUSH0 DUP1 RETURNDATACOPY RETURNDATASIZE PUSH0 REVERT JUMPDEST POP POP POP POP POP JUMP JUMPDEST PUSH0 PUSH1 0x20 DUP3 DUP5 SUB SLT ISZERO PUSH2 0x88B JUMPI PUSH0 DUP1 REVERT JUMPDEST POP CALLDATALOAD SWAP2 SWAP1 POP JUMP JUMPDEST PUSH0 PUSH1 0x20 DUP3 DUP5 SUB SLT ISZERO PUSH2 0x8A2 JUMPI PUSH0 DUP1 REVERT JUMPDEST DUP2 CALLDATALOAD PUSH1 0x1 PUSH1 0x1 PUSH1 0xA0 SHL SUB DUP2 AND DUP2 EQ PUSH2 0x8B8 JUMPI PUSH0 DUP1 REVERT JUMPDEST SWAP4 SWAP3 POP POP POP JUMP JUMPDEST PUSH0 PUSH1 0x20 DUP3 DUP5 SUB SLT ISZERO PUSH2 0x8CF JUMPI PUSH0 DUP1 REVERT JUMPDEST POP MLOAD SWAP2 SWAP1 POP JUMP JUMPDEST PUSH0 PUSH1 0x20 DUP3 DUP5 SUB SLT ISZERO PUSH2 0x8E6 JUMPI PUSH0 DUP1 REVERT JUMPDEST DUP2 MLOAD DUP1 ISZERO ISZERO DUP2 EQ PUSH2 0x8B8 JUMPI PUSH0 DUP1 REVERT INVALID LOG2 PUSH5 0x6970667358 0x22 SLT KECCAK256 DUP6 0xB2 PUSH21 0x90333497846E5AC4903A1F9E2A42EB08C90AE14412 0xC BALANCE 0xCE SWAP13 EXTCODEHASH 0xF EXTCODESIZE CALLDATALOAD PUSH5 0x736F6C6343 STOP ADDMOD BYTE STOP CALLER "},"methodIdentifiers":{"COMET_USDC()":"4166cc10","asset()":"38d52e0f","comet()":"ba3e9c12","deposit(uint256)":"b6b55f25","owner()":"8da5cb5b","pause()":"8456cb59","paused()":"5c975abb","renounceOwnership()":"715018a6","totalAssets()":"01e1d114","transferOwnership(address)":"f2fde38b","unpause()":"3f4ba83a","vault()":"fbfa77cf","withdraw(uint256)":"2e1a7d4d"}}}}}