{"contracts/MetaVault.sol":{"MetaVault":{"abi":[{"inputs":[{"internalType":"address","name":"_asset","type":"address"},{"internalType":"address","name":"_feeRecipient","type":"address"}],"stateMutability":"nonpayable","type":"constructor"},{"inputs":[{"internalType":"address","name":"owner","type":"address"}],"name":"OwnableInvalidOwner","type":"error"},{"inputs":[{"internalType":"address","name":"account","type":"address"}],"name":"OwnableUnauthorizedAccount","type":"error"},{"inputs":[],"name":"ReentrancyGuardReentrantCall","type":"error"},{"anonymous":false,"inputs":[{"indexed":true,"internalType":"address","name":"user","type":"address"},{"indexed":false,"internalType":"uint256","name":"amount","type":"uint256"},{"indexed":false,"internalType":"uint256","name":"shares","type":"uint256"}],"name":"Deposit","type":"event"},{"anonymous":false,"inputs":[{"indexed":true,"internalType":"address","name":"previousOwner","type":"address"},{"indexed":true,"internalType":"address","name":"newOwner","type":"address"}],"name":"OwnershipTransferred","type":"event"},{"anonymous":false,"inputs":[{"indexed":false,"internalType":"uint256[]","name":"newAllocations","type":"uint256[]"}],"name":"Rebalance","type":"event"},{"anonymous":false,"inputs":[{"indexed":true,"internalType":"address","name":"user","type":"address"},{"indexed":false,"internalType":"uint256","name":"shares","type":"uint256"},{"indexed":false,"internalType":"uint256","name":"amount","type":"uint256"}],"name":"Withdraw","type":"event"},{"inputs":[{"internalType":"address","name":"strategy","type":"address"},{"internalType":"uint256","name":"allocation","type":"uint256"}],"name":"addStrategy","outputs":[],"stateMutability":"nonpayable","type":"function"},{"inputs":[{"internalType":"uint256","name":"","type":"uint256"}],"name":"allocations","outputs":[{"internalType":"uint256","name":"","type":"uint256"}],"stateMutability":"view","type":"function"},{"inputs":[],"name":"asset","outputs":[{"internalType":"contract IERC20","name":"","type":"address"}],"stateMutability":"view","type":"function"},{"inputs":[{"internalType":"uint256","name":"amount","type":"uint256"}],"name":"deposit","outputs":[],"stateMutability":"nonpayable","type":"function"},{"inputs":[{"internalType":"address","name":"","type":"address"}],"name":"depositedAmount","outputs":[{"internalType":"uint256","name":"","type":"uint256"}],"stateMutability":"view","type":"function"},{"inputs":[],"name":"feeRecipient","outputs":[{"internalType":"address","name":"","type":"address"}],"stateMutability":"view","type":"function"},{"inputs":[{"internalType":"address","name":"user","type":"address"}],"name":"getUserValue","outputs":[{"internalType":"uint256","name":"","type":"uint256"}],"stateMutability":"view","type":"function"},{"inputs":[],"name":"owner","outputs":[{"internalType":"address","name":"","type":"address"}],"stateMutability":"view","type":"function"},{"inputs":[],"name":"performanceFee","outputs":[{"internalType":"uint256","name":"","type":"uint256"}],"stateMutability":"view","type":"function"},{"inputs":[{"internalType":"uint256[]","name":"newAllocations","type":"uint256[]"}],"name":"rebalance","outputs":[],"stateMutability":"nonpayable","type":"function"},{"inputs":[{"internalType":"uint256","name":"index","type":"uint256"}],"name":"removeStrategy","outputs":[],"stateMutability":"nonpayable","type":"function"},{"inputs":[],"name":"renounceOwnership","outputs":[],"stateMutability":"nonpayable","type":"function"},{"inputs":[{"internalType":"address","name":"_recipient","type":"address"}],"name":"setFeeRecipient","outputs":[],"stateMutability":"nonpayable","type":"function"},{"inputs":[{"internalType":"uint256","name":"_bps","type":"uint256"}],"name":"setPerformanceFee","outputs":[],"stateMutability":"nonpayable","type":"function"},{"inputs":[],"name":"sharePrice","outputs":[{"internalType":"uint256","name":"","type":"uint256"}],"stateMutability":"view","type":"function"},{"inputs":[{"internalType":"address","name":"","type":"address"}],"name":"shares","outputs":[{"internalType":"uint256","name":"","type":"uint256"}],"stateMutability":"view","type":"function"},{"inputs":[{"internalType":"uint256","name":"","type":"uint256"}],"name":"strategies","outputs":[{"internalType":"address","name":"","type":"address"}],"stateMutability":"view","type":"function"},{"inputs":[],"name":"totalAssets","outputs":[{"internalType":"uint256","name":"total","type":"uint256"}],"stateMutability":"view","type":"function"},{"inputs":[],"name":"totalShares","outputs":[{"internalType":"uint256","name":"","type":"uint256"}],"stateMutability":"view","type":"function"},{"inputs":[{"internalType":"address","name":"newOwner","type":"address"}],"name":"transferOwnership","outputs":[],"stateMutability":"nonpayable","type":"function"},{"inputs":[{"internalType":"uint256","name":"shareAmount","type":"uint256"}],"name":"withdraw","outputs":[],"stateMutability":"nonpayable","type":"function"}],"evm":{"bytecode":{"linkReferences":{},"object":"60a06040526103e8600655348015610015575f80fd5b506040516112eb3803806112eb83398101604081905261003491610119565b338061005957604051631e4fbdf760e01b81525f600482015260240160405180910390fd5b610062816100af565b5060017f9b779b17422d0df92223018b32b4d1fa46e071723d6817e2486d003becc55f00556001600160a01b03918216608052600780546001600160a01b0319169190921617905561014a565b5f80546001600160a01b038381166001600160a01b0319831681178455604051919092169283917f8be0079c531659141344cd1fd0a4f28419497f9722a3daafe3b4186f6b6457e09190a35050565b80516001600160a01b0381168114610114575f80fd5b919050565b5f806040838503121561012a575f80fd5b610133836100fe565b9150610141602084016100fe565b90509250929050565b60805161116d61017e5f395f818161017e015281816102fd015281816105b40152818161062c01526109dd015261116d5ff3fe608060405234801561000f575f80fd5b5060043610610132575f3560e01c806387269729116100b4578063c0cbbca611610079578063c0cbbca614610268578063c9411e221461027b578063ce7c2ac21461028e578063d574ea3d146102ad578063e74b981b146102c0578063f2fde38b146102d3575f80fd5b8063872697291461022157806387788782146102295780638da5cb5b14610232578063a78c849b14610242578063b6b55f2514610255575f80fd5b806346904840116100fa57806346904840146101c15780634a4643f7146101d457806370897b23146101f3578063715018a614610206578063780d57101461020e575f80fd5b806301e1d114146101365780630a2642bf146101515780632e1a7d4d1461016457806338d52e0f146101795780633a98ef39146101b8575b5f80fd5b61013e6102e6565b6040519081526020015b60405180910390f35b61013e61015f366004610f27565b610415565b610177610172366004610f27565b610434565b005b6101a07f000000000000000000000000000000000000000000000000000000000000000081565b6040516001600160a01b039091168152602001610148565b61013e60015481565b6007546101a0906001600160a01b031681565b61013e6101e2366004610f59565b60036020525f908152604090205481565b610177610201366004610f27565b61072b565b610177610779565b61017761021c366004610f79565b61078c565b61013e6108d9565b61013e60065481565b5f546001600160a01b03166101a0565b61013e610250366004610f59565b61091c565b610177610263366004610f27565b61096a565b610177610276366004610f27565b610b30565b610177610289366004610fea565b610d4f565b61013e61029c366004610f59565b60026020525f908152604090205481565b6101a06102bb366004610f27565b610dd6565b6101776102ce366004610f59565b610dfe565b6101776102e1366004610f59565b610e28565b6040516370a0823160e01b81523060048201525f907f00000000000000000000000000000000000000000000000000000000000000006001600160a01b0316906370a0823190602401602060405180830381865afa15801561034a573d5f803e3d5ffd5b505050506040513d601f19601f8201168201806040525081019061036e9190611012565b90505f5b600454811015610411576004818154811061038f5761038f611029565b5f9182526020918290200154604080516278744560e21b815290516001600160a01b03909216926301e1d114926004808401938290030181865afa1580156103d9573d5f803e3d5ffd5b505050506040513d601f19601f820116820180604052508101906103fd9190611012565b6104079083611051565b9150600101610372565b5090565b60058181548110610424575f80fd5b5f91825260209091200154905081565b61043c610e62565b335f908152600260205260409020548111156104955760405162461bcd60e51b8152602060048201526013602482015272496e73756666696369656e742073686172657360681b60448201526064015b60405180910390fd5b5f600154826104a26102e6565b6104ac9190611064565b6104b6919061107b565b335f90815260026020908152604080832054600390925282205492935090916104e0908590611064565b6104ea919061107b565b90505f8183116104fa575f610504565b610504828461109a565b90505f612710600654836105189190611064565b610522919061107b565b335f9081526002602052604081208054929350879290919061054590849061109a565b9091555050335f908152600360205260408120805485929061056890849061109a565b925050819055508460015f828254610580919061109a565b909155505080156106225760075460405163a9059cbb60e01b81526001600160a01b039182166004820152602481018390527f00000000000000000000000000000000000000000000000000000000000000009091169063a9059cbb906044016020604051808303815f875af11580156105fc573d5f803e3d5ffd5b505050506040513d601f19601f8201168201806040525081019061062091906110ad565b505b6001600160a01b037f00000000000000000000000000000000000000000000000000000000000000001663a9059cbb3361065c848861109a565b6040516001600160e01b031960e085901b1681526001600160a01b03909216600483015260248201526044016020604051808303815f875af11580156106a4573d5f803e3d5ffd5b505050506040513d601f19601f820116820180604052508101906106c891906110ad565b50337ff279e6a1f5e320cca91135676d9cb6e44ca8a08c0b88342bcdb1144f6511b568866106f6848861109a565b6040805192835260208301919091520160405180910390a25050505061072860015f8051602061111883398151915255565b50565b610733610e7d565b610bb88111156107745760405162461bcd60e51b815260206004820152600c60248201526b0cccaca40e8dede40d0d2ced60a31b604482015260640161048c565b600655565b610781610e7d565b61078a5f610ea9565b565b610794610e7d565b60045481146107d45760405162461bcd60e51b815260206004820152600c60248201526b0d8cadc40dad2e6dac2e8c6d60a31b604482015260640161048c565b5f805b8281101561080d578383828181106107f1576107f1611029565b90506020020135826108039190611051565b91506001016107d7565b5080612710146108515760405162461bcd60e51b815260206004820152600f60248201526e62616420616c6c6f636174696f6e7360881b604482015260640161048c565b5f5b8281101561089a5783838281811061086d5761086d611029565b905060200201356005828154811061088757610887611029565b5f91825260209091200155600101610853565b507fc90fb8e7b2b4e1a4463f6c54d69334a5a8c1b1eef51598d4f40a0fd241d1f2b883836040516108cc9291906110cc565b60405180910390a1505050565b5f6001545f036108f05750670de0b6b3a764000090565b6001546108fb6102e6565b61090d90670de0b6b3a7640000611064565b610917919061107b565b905090565b5f6001545f0361092d57505f919050565b6001546001600160a01b0383165f908152600260205260409020546109506102e6565b61095a9190611064565b610964919061107b565b92915050565b610972610e62565b5f81116109af5760405162461bcd60e51b815260206004820152600b60248201526a16995c9bc8185b5bdd5b9d60aa1b604482015260640161048c565b5f6109b86102e6565b6040516323b872dd60e01b8152336004820152306024820152604481018490529091507f00000000000000000000000000000000000000000000000000000000000000006001600160a01b0316906323b872dd906064016020604051808303815f875af1158015610a2b573d5f803e3d5ffd5b505050506040513d601f19601f82011682018060405250810190610a4f91906110ad565b505f6001545f14610a78578160015484610a699190611064565b610a73919061107b565b610a7a565b825b335f90815260026020526040812080549293508392909190610a9d908490611051565b9091555050335f9081526003602052604081208054859290610ac0908490611051565b925050819055508060015f828254610ad89190611051565b9091555050604080518481526020810183905233917f90890809c654f11d6e72a28fa60149770a0d11ec6c92319d6ceb2bb0a4ea1a15910160405180910390a2505061072860015f8051602061111883398151915255565b610b38610e7d565b6004548110610b755760405162461bcd60e51b81526020600482015260096024820152680c4c2c840d2dcc8caf60bb1b604482015260640161048c565b60048181548110610b8857610b88611029565b5f9182526020918290200154604080516278744560e21b815290516001600160a01b03909216926301e1d114926004808401938290030181865afa158015610bd2573d5f803e3d5ffd5b505050506040513d601f19601f82011682018060405250810190610bf69190611012565b15610c385760405162461bcd60e51b81526020600482015260126024820152717374726174656779206e6f6e2d656d70747960701b604482015260640161048c565b6004545f90610c499060019061109a565b9050808214610cf65760048181548110610c6557610c65611029565b5f91825260209091200154600480546001600160a01b039092169184908110610c9057610c90611029565b905f5260205f20015f6101000a8154816001600160a01b0302191690836001600160a01b0316021790555060058181548110610cce57610cce611029565b905f5260205f20015460058381548110610cea57610cea611029565b5f918252602090912001555b6004805480610d0757610d07611103565b5f8281526020902081015f1990810180546001600160a01b03191690550190556005805480610d3857610d38611103565b600190038181905f5260205f20015f905590555050565b610d57610e7d565b6004805460018082019092557f8a35acfbc15ff81a39ae7d344fd709f28e8600b4aa8c65c6b64bfe7fe36bd19b0180546001600160a01b0319166001600160a01b0394909416939093179092556005805492830181555f527f036b6384b5eca791c62761152d0c79bb0604c104a5fb6f4eb0703f3154bb3db090910155565b60048181548110610de5575f80fd5b5f918252602090912001546001600160a01b0316905081565b610e06610e7d565b600780546001600160a01b0319166001600160a01b0392909216919091179055565b610e30610e7d565b6001600160a01b038116610e5957604051631e4fbdf760e01b81525f600482015260240161048c565b61072881610ea9565b610e6a610ef8565b60025f8051602061111883398151915255565b5f546001600160a01b0316331461078a5760405163118cdaa760e01b815233600482015260240161048c565b5f80546001600160a01b038381166001600160a01b0319831681178455604051919092169283917f8be0079c531659141344cd1fd0a4f28419497f9722a3daafe3b4186f6b6457e09190a35050565b5f805160206111188339815191525460020361078a57604051633ee5aeb560e01b815260040160405180910390fd5b5f60208284031215610f37575f80fd5b5035919050565b80356001600160a01b0381168114610f54575f80fd5b919050565b5f60208284031215610f69575f80fd5b610f7282610f3e565b9392505050565b5f8060208385031215610f8a575f80fd5b823567ffffffffffffffff811115610fa0575f80fd5b8301601f81018513610fb0575f80fd5b803567ffffffffffffffff811115610fc6575f80fd5b8560208260051b8401011115610fda575f80fd5b6020919091019590945092505050565b5f8060408385031215610ffb575f80fd5b61100483610f3e565b946020939093013593505050565b5f60208284031215611022575f80fd5b5051919050565b634e487b7160e01b5f52603260045260245ffd5b634e487b7160e01b5f52601160045260245ffd5b808201808211156109645761096461103d565b80820281158282048414176109645761096461103d565b5f8261109557634e487b7160e01b5f52601260045260245ffd5b500490565b818103818111156109645761096461103d565b5f602082840312156110bd575f80fd5b81518015158114610f72575f80fd5b602080825281018290525f6001600160fb1b038311156110ea575f80fd5b8260051b80856040850137919091016040019392505050565b634e487b7160e01b5f52603160045260245ffdfe9b779b17422d0df92223018b32b4d1fa46e071723d6817e2486d003becc55f00a2646970667358221220b734fe8c1a5066a53e589cf86e01b7a19fc14f07ada88f1d0550e33d0089568064736f6c634300081a0033","opcodes":"PUSH1 0xA0 PUSH1 0x40 MSTORE PUSH2 0x3E8 PUSH1 0x6 SSTORE CALLVALUE DUP1 ISZERO PUSH2 0x15 JUMPI PUSH0 DUP1 REVERT JUMPDEST POP PUSH1 0x40 MLOAD PUSH2 0x12EB CODESIZE SUB DUP1 PUSH2 0x12EB DUP4 CODECOPY DUP2 ADD PUSH1 0x40 DUP2 SWAP1 MSTORE PUSH2 0x34 SWAP2 PUSH2 0x119 JUMP JUMPDEST CALLER DUP1 PUSH2 0x59 JUMPI PUSH1 0x40 MLOAD PUSH4 0x1E4FBDF7 PUSH1 0xE0 SHL DUP2 MSTORE PUSH0 PUSH1 0x4 DUP3 ADD MSTORE PUSH1 0x24 ADD PUSH1 0x40 MLOAD DUP1 SWAP2 SUB SWAP1 REVERT JUMPDEST PUSH2 0x62 DUP2 PUSH2 0xAF JUMP JUMPDEST POP PUSH1 0x1 PUSH32 0x9B779B17422D0DF92223018B32B4D1FA46E071723D6817E2486D003BECC55F00 SSTORE PUSH1 0x1 PUSH1 0x1 PUSH1 0xA0 SHL SUB SWAP2 DUP3 AND PUSH1 0x80 MSTORE PUSH1 0x7 DUP1 SLOAD PUSH1 0x1 PUSH1 0x1 PUSH1 0xA0 SHL SUB NOT AND SWAP2 SWAP1 SWAP3 AND OR SWAP1 SSTORE PUSH2 0x14A JUMP JUMPDEST PUSH0 DUP1 SLOAD PUSH1 0x1 PUSH1 0x1 PUSH1 0xA0 SHL SUB DUP4 DUP2 AND PUSH1 0x1 PUSH1 0x1 PUSH1 0xA0 SHL SUB NOT DUP4 AND DUP2 OR DUP5 SSTORE PUSH1 0x40 MLOAD SWAP2 SWAP1 SWAP3 AND SWAP3 DUP4 SWAP2 PUSH32 0x8BE0079C531659141344CD1FD0A4F28419497F9722A3DAAFE3B4186F6B6457E0 SWAP2 SWAP1 LOG3 POP POP JUMP JUMPDEST DUP1 MLOAD PUSH1 0x1 PUSH1 0x1 PUSH1 0xA0 SHL SUB DUP2 AND DUP2 EQ PUSH2 0x114 JUMPI PUSH0 DUP1 REVERT JUMPDEST SWAP2 SWAP1 POP JUMP JUMPDEST PUSH0 DUP1 PUSH1 0x40 DUP4 DUP6 SUB SLT ISZERO PUSH2 0x12A JUMPI PUSH0 DUP1 REVERT JUMPDEST PUSH2 0x133 DUP4 PUSH2 0xFE JUMP JUMPDEST SWAP2 POP PUSH2 0x141 PUSH1 0x20 DUP5 ADD PUSH2 0xFE JUMP JUMPDEST SWAP1 POP SWAP3 POP SWAP3 SWAP1 POP JUMP JUMPDEST PUSH1 0x80 MLOAD PUSH2 0x116D PUSH2 0x17E PUSH0 CODECOPY PUSH0 DUP2 DUP2 PUSH2 0x17E ADD MSTORE DUP2 DUP2 PUSH2 0x2FD ADD MSTORE DUP2 DUP2 PUSH2 0x5B4 ADD MSTORE DUP2 DUP2 PUSH2 0x62C ADD MSTORE PUSH2 0x9DD ADD MSTORE PUSH2 0x116D PUSH0 RETURN INVALID PUSH1 0x80 PUSH1 0x40 MSTORE CALLVALUE DUP1 ISZERO PUSH2 0xF JUMPI PUSH0 DUP1 REVERT JUMPDEST POP PUSH1 0x4 CALLDATASIZE LT PUSH2 0x132 JUMPI PUSH0 CALLDATALOAD PUSH1 0xE0 SHR DUP1 PUSH4 0x87269729 GT PUSH2 0xB4 JUMPI DUP1 PUSH4 0xC0CBBCA6 GT PUSH2 0x79 JUMPI DUP1 PUSH4 0xC0CBBCA6 EQ PUSH2 0x268 JUMPI DUP1 PUSH4 0xC9411E22 EQ PUSH2 0x27B JUMPI DUP1 PUSH4 0xCE7C2AC2 EQ PUSH2 0x28E JUMPI DUP1 PUSH4 0xD574EA3D EQ PUSH2 0x2AD JUMPI DUP1 PUSH4 0xE74B981B EQ PUSH2 0x2C0 JUMPI DUP1 PUSH4 0xF2FDE38B EQ PUSH2 0x2D3 JUMPI PUSH0 DUP1 REVERT JUMPDEST DUP1 PUSH4 0x87269729 EQ PUSH2 0x221 JUMPI DUP1 PUSH4 0x87788782 EQ PUSH2 0x229 JUMPI DUP1 PUSH4 0x8DA5CB5B EQ PUSH2 0x232 JUMPI DUP1 PUSH4 0xA78C849B EQ PUSH2 0x242 JUMPI DUP1 PUSH4 0xB6B55F25 EQ PUSH2 0x255 JUMPI PUSH0 DUP1 REVERT JUMPDEST DUP1 PUSH4 0x46904840 GT PUSH2 0xFA JUMPI DUP1 PUSH4 0x46904840 EQ PUSH2 0x1C1 JUMPI DUP1 PUSH4 0x4A4643F7 EQ PUSH2 0x1D4 JUMPI DUP1 PUSH4 0x70897B23 EQ PUSH2 0x1F3 JUMPI DUP1 PUSH4 0x715018A6 EQ PUSH2 0x206 JUMPI DUP1 PUSH4 0x780D5710 EQ PUSH2 0x20E JUMPI PUSH0 DUP1 REVERT JUMPDEST DUP1 PUSH4 0x1E1D114 EQ PUSH2 0x136 JUMPI DUP1 PUSH4 0xA2642BF EQ PUSH2 0x151 JUMPI DUP1 PUSH4 0x2E1A7D4D EQ PUSH2 0x164 JUMPI DUP1 PUSH4 0x38D52E0F EQ PUSH2 0x179 JUMPI DUP1 PUSH4 0x3A98EF39 EQ PUSH2 0x1B8 JUMPI JUMPDEST PUSH0 DUP1 REVERT JUMPDEST PUSH2 0x13E PUSH2 0x2E6 JUMP JUMPDEST PUSH1 0x40 MLOAD SWAP1 DUP2 MSTORE PUSH1 0x20 ADD JUMPDEST PUSH1 0x40 MLOAD DUP1 SWAP2 SUB SWAP1 RETURN JUMPDEST PUSH2 0x13E PUSH2 0x15F CALLDATASIZE PUSH1 0x4 PUSH2 0xF27 JUMP JUMPDEST PUSH2 0x415 JUMP JUMPDEST PUSH2 0x177 PUSH2 0x172 CALLDATASIZE PUSH1 0x4 PUSH2 0xF27 JUMP JUMPDEST PUSH2 0x434 JUMP JUMPDEST STOP JUMPDEST PUSH2 0x1A0 PUSH32 0x0 DUP2 JUMP JUMPDEST PUSH1 0x40 MLOAD PUSH1 0x1 PUSH1 0x1 PUSH1 0xA0 SHL SUB SWAP1 SWAP2 AND DUP2 MSTORE PUSH1 0x20 ADD PUSH2 0x148 JUMP JUMPDEST PUSH2 0x13E PUSH1 0x1 SLOAD DUP2 JUMP JUMPDEST PUSH1 0x7 SLOAD PUSH2 0x1A0 SWAP1 PUSH1 0x1 PUSH1 0x1 PUSH1 0xA0 SHL SUB AND DUP2 JUMP JUMPDEST PUSH2 0x13E PUSH2 0x1E2 CALLDATASIZE PUSH1 0x4 PUSH2 0xF59 JUMP JUMPDEST PUSH1 0x3 PUSH1 0x20 MSTORE PUSH0 SWAP1 DUP2 MSTORE PUSH1 0x40 SWAP1 KECCAK256 SLOAD DUP2 JUMP JUMPDEST PUSH2 0x177 PUSH2 0x201 CALLDATASIZE PUSH1 0x4 PUSH2 0xF27 JUMP JUMPDEST PUSH2 0x72B JUMP JUMPDEST PUSH2 0x177 PUSH2 0x779 JUMP JUMPDEST PUSH2 0x177 PUSH2 0x21C CALLDATASIZE PUSH1 0x4 PUSH2 0xF79 JUMP JUMPDEST PUSH2 0x78C JUMP JUMPDEST PUSH2 0x13E PUSH2 0x8D9 JUMP JUMPDEST PUSH2 0x13E PUSH1 0x6 SLOAD DUP2 JUMP JUMPDEST PUSH0 SLOAD PUSH1 0x1 PUSH1 0x1 PUSH1 0xA0 SHL SUB AND PUSH2 0x1A0 JUMP JUMPDEST PUSH2 0x13E PUSH2 0x250 CALLDATASIZE PUSH1 0x4 PUSH2 0xF59 JUMP JUMPDEST PUSH2 0x91C JUMP JUMPDEST PUSH2 0x177 PUSH2 0x263 CALLDATASIZE PUSH1 0x4 PUSH2 0xF27 JUMP JUMPDEST PUSH2 0x96A JUMP JUMPDEST PUSH2 0x177 PUSH2 0x276 CALLDATASIZE PUSH1 0x4 PUSH2 0xF27 JUMP JUMPDEST PUSH2 0xB30 JUMP JUMPDEST PUSH2 0x177 PUSH2 0x289 CALLDATASIZE PUSH1 0x4 PUSH2 0xFEA JUMP JUMPDEST PUSH2 0xD4F JUMP JUMPDEST PUSH2 0x13E PUSH2 0x29C CALLDATASIZE PUSH1 0x4 PUSH2 0xF59 JUMP JUMPDEST PUSH1 0x2 PUSH1 0x20 MSTORE PUSH0 SWAP1 DUP2 MSTORE PUSH1 0x40 SWAP1 KECCAK256 SLOAD DUP2 JUMP JUMPDEST PUSH2 0x1A0 PUSH2 0x2BB CALLDATASIZE PUSH1 0x4 PUSH2 0xF27 JUMP JUMPDEST PUSH2 0xDD6 JUMP JUMPDEST PUSH2 0x177 PUSH2 0x2CE CALLDATASIZE PUSH1 0x4 PUSH2 0xF59 JUMP JUMPDEST PUSH2 0xDFE JUMP JUMPDEST PUSH2 0x177 PUSH2 0x2E1 CALLDATASIZE PUSH1 0x4 PUSH2 0xF59 JUMP JUMPDEST PUSH2 0xE28 JUMP JUMPDEST PUSH1 0x40 MLOAD PUSH4 0x70A08231 PUSH1 0xE0 SHL DUP2 MSTORE ADDRESS PUSH1 0x4 DUP3 ADD MSTORE PUSH0 SWAP1 PUSH32 0x0 PUSH1 0x1 PUSH1 0x1 PUSH1 0xA0 SHL SUB AND SWAP1 PUSH4 0x70A08231 SWAP1 PUSH1 0x24 ADD PUSH1 0x20 PUSH1 0x40 MLOAD DUP1 DUP4 SUB DUP2 DUP7 GAS STATICCALL ISZERO DUP1 ISZERO PUSH2 0x34A JUMPI RETURNDATASIZE PUSH0 DUP1 RETURNDATACOPY RETURNDATASIZE PUSH0 REVERT JUMPDEST POP POP POP POP PUSH1 0x40 MLOAD RETURNDATASIZE PUSH1 0x1F NOT PUSH1 0x1F DUP3 ADD AND DUP3 ADD DUP1 PUSH1 0x40 MSTORE POP DUP2 ADD SWAP1 PUSH2 0x36E SWAP2 SWAP1 PUSH2 0x1012 JUMP JUMPDEST SWAP1 POP PUSH0 JUMPDEST PUSH1 0x4 SLOAD DUP2 LT ISZERO PUSH2 0x411 JUMPI PUSH1 0x4 DUP2 DUP2 SLOAD DUP2 LT PUSH2 0x38F JUMPI PUSH2 0x38F PUSH2 0x1029 JUMP JUMPDEST PUSH0 SWAP2 DUP3 MSTORE PUSH1 0x20 SWAP2 DUP3 SWAP1 KECCAK256 ADD SLOAD PUSH1 0x40 DUP1 MLOAD PUSH3 0x787445 PUSH1 0xE2 SHL DUP2 MSTORE SWAP1 MLOAD PUSH1 0x1 PUSH1 0x1 PUSH1 0xA0 SHL SUB SWAP1 SWAP3 AND SWAP3 PUSH4 0x1E1D114 SWAP3 PUSH1 0x4 DUP1 DUP5 ADD SWAP4 DUP3 SWAP1 SUB ADD DUP2 DUP7 GAS STATICCALL ISZERO DUP1 ISZERO PUSH2 0x3D9 JUMPI RETURNDATASIZE PUSH0 DUP1 RETURNDATACOPY RETURNDATASIZE PUSH0 REVERT JUMPDEST POP POP POP POP PUSH1 0x40 MLOAD RETURNDATASIZE PUSH1 0x1F NOT PUSH1 0x1F DUP3 ADD AND DUP3 ADD DUP1 PUSH1 0x40 MSTORE POP DUP2 ADD SWAP1 PUSH2 0x3FD SWAP2 SWAP1 PUSH2 0x1012 JUMP JUMPDEST PUSH2 0x407 SWAP1 DUP4 PUSH2 0x1051 JUMP JUMPDEST SWAP2 POP PUSH1 0x1 ADD PUSH2 0x372 JUMP JUMPDEST POP SWAP1 JUMP JUMPDEST PUSH1 0x5 DUP2 DUP2 SLOAD DUP2 LT PUSH2 0x424 JUMPI PUSH0 DUP1 REVERT JUMPDEST PUSH0 SWAP2 DUP3 MSTORE PUSH1 0x20 SWAP1 SWAP2 KECCAK256 ADD SLOAD SWAP1 POP DUP2 JUMP JUMPDEST PUSH2 0x43C PUSH2 0xE62 JUMP JUMPDEST CALLER PUSH0 SWAP1 DUP2 MSTORE PUSH1 0x2 PUSH1 0x20 MSTORE PUSH1 0x40 SWAP1 KECCAK256 SLOAD DUP2 GT ISZERO PUSH2 0x495 JUMPI PUSH1 0x40 MLOAD PUSH3 0x461BCD PUSH1 0xE5 SHL DUP2 MSTORE PUSH1 0x20 PUSH1 0x4 DUP3 ADD MSTORE PUSH1 0x13 PUSH1 0x24 DUP3 ADD MSTORE PUSH19 0x496E73756666696369656E7420736861726573 PUSH1 0x68 SHL PUSH1 0x44 DUP3 ADD MSTORE PUSH1 0x64 ADD JUMPDEST PUSH1 0x40 MLOAD DUP1 SWAP2 SUB SWAP1 REVERT JUMPDEST PUSH0 PUSH1 0x1 SLOAD DUP3 PUSH2 0x4A2 PUSH2 0x2E6 JUMP JUMPDEST PUSH2 0x4AC SWAP2 SWAP1 PUSH2 0x1064 JUMP JUMPDEST PUSH2 0x4B6 SWAP2 SWAP1 PUSH2 0x107B JUMP JUMPDEST CALLER PUSH0 SWAP1 DUP2 MSTORE PUSH1 0x2 PUSH1 0x20 SWAP1 DUP2 MSTORE PUSH1 0x40 DUP1 DUP4 KECCAK256 SLOAD PUSH1 0x3 SWAP1 SWAP3 MSTORE DUP3 KECCAK256 SLOAD SWAP3 SWAP4 POP SWAP1 SWAP2 PUSH2 0x4E0 SWAP1 DUP6 SWAP1 PUSH2 0x1064 JUMP JUMPDEST PUSH2 0x4EA SWAP2 SWAP1 PUSH2 0x107B JUMP JUMPDEST SWAP1 POP PUSH0 DUP2 DUP4 GT PUSH2 0x4FA JUMPI PUSH0 PUSH2 0x504 JUMP JUMPDEST PUSH2 0x504 DUP3 DUP5 PUSH2 0x109A JUMP JUMPDEST SWAP1 POP PUSH0 PUSH2 0x2710 PUSH1 0x6 SLOAD DUP4 PUSH2 0x518 SWAP2 SWAP1 PUSH2 0x1064 JUMP JUMPDEST PUSH2 0x522 SWAP2 SWAP1 PUSH2 0x107B JUMP JUMPDEST CALLER PUSH0 SWAP1 DUP2 MSTORE PUSH1 0x2 PUSH1 0x20 MSTORE PUSH1 0x40 DUP2 KECCAK256 DUP1 SLOAD SWAP3 SWAP4 POP DUP8 SWAP3 SWAP1 SWAP2 SWAP1 PUSH2 0x545 SWAP1 DUP5 SWAP1 PUSH2 0x109A JUMP JUMPDEST SWAP1 SWAP2 SSTORE POP POP CALLER PUSH0 SWAP1 DUP2 MSTORE PUSH1 0x3 PUSH1 0x20 MSTORE PUSH1 0x40 DUP2 KECCAK256 DUP1 SLOAD DUP6 SWAP3 SWAP1 PUSH2 0x568 SWAP1 DUP5 SWAP1 PUSH2 0x109A JUMP JUMPDEST SWAP3 POP POP DUP2 SWAP1 SSTORE POP DUP5 PUSH1 0x1 PUSH0 DUP3 DUP3 SLOAD PUSH2 0x580 SWAP2 SWAP1 PUSH2 0x109A JUMP JUMPDEST SWAP1 SWAP2 SSTORE POP POP DUP1 ISZERO PUSH2 0x622 JUMPI PUSH1 0x7 SLOAD PUSH1 0x40 MLOAD PUSH4 0xA9059CBB PUSH1 0xE0 SHL DUP2 MSTORE PUSH1 0x1 PUSH1 0x1 PUSH1 0xA0 SHL SUB SWAP2 DUP3 AND PUSH1 0x4 DUP3 ADD MSTORE PUSH1 0x24 DUP2 ADD DUP4 SWAP1 MSTORE PUSH32 0x0 SWAP1 SWAP2 AND SWAP1 PUSH4 0xA9059CBB SWAP1 PUSH1 0x44 ADD PUSH1 0x20 PUSH1 0x40 MLOAD DUP1 DUP4 SUB DUP2 PUSH0 DUP8 GAS CALL ISZERO DUP1 ISZERO PUSH2 0x5FC JUMPI RETURNDATASIZE PUSH0 DUP1 RETURNDATACOPY RETURNDATASIZE PUSH0 REVERT JUMPDEST POP POP POP POP PUSH1 0x40 MLOAD RETURNDATASIZE PUSH1 0x1F NOT PUSH1 0x1F DUP3 ADD AND DUP3 ADD DUP1 PUSH1 0x40 MSTORE POP DUP2 ADD SWAP1 PUSH2 0x620 SWAP2 SWAP1 PUSH2 0x10AD JUMP JUMPDEST POP JUMPDEST PUSH1 0x1 PUSH1 0x1 PUSH1 0xA0 SHL SUB PUSH32 0x0 AND PUSH4 0xA9059CBB CALLER PUSH2 0x65C DUP5 DUP9 PUSH2 0x109A JUMP JUMPDEST PUSH1 0x40 MLOAD PUSH1 0x1 PUSH1 0x1 PUSH1 0xE0 SHL SUB NOT PUSH1 0xE0 DUP6 SWAP1 SHL AND DUP2 MSTORE PUSH1 0x1 PUSH1 0x1 PUSH1 0xA0 SHL SUB SWAP1 SWAP3 AND PUSH1 0x4 DUP4 ADD MSTORE PUSH1 0x24 DUP3 ADD MSTORE PUSH1 0x44 ADD PUSH1 0x20 PUSH1 0x40 MLOAD DUP1 DUP4 SUB DUP2 PUSH0 DUP8 GAS CALL ISZERO DUP1 ISZERO PUSH2 0x6A4 JUMPI RETURNDATASIZE PUSH0 DUP1 RETURNDATACOPY RETURNDATASIZE PUSH0 REVERT JUMPDEST POP POP POP POP PUSH1 0x40 MLOAD RETURNDATASIZE PUSH1 0x1F NOT PUSH1 0x1F DUP3 ADD AND DUP3 ADD DUP1 PUSH1 0x40 MSTORE POP DUP2 ADD SWAP1 PUSH2 0x6C8 SWAP2 SWAP1 PUSH2 0x10AD JUMP JUMPDEST POP CALLER PUSH32 0xF279E6A1F5E320CCA91135676D9CB6E44CA8A08C0B88342BCDB1144F6511B568 DUP7 PUSH2 0x6F6 DUP5 DUP9 PUSH2 0x109A JUMP JUMPDEST PUSH1 0x40 DUP1 MLOAD SWAP3 DUP4 MSTORE PUSH1 0x20 DUP4 ADD SWAP2 SWAP1 SWAP2 MSTORE ADD PUSH1 0x40 MLOAD DUP1 SWAP2 SUB SWAP1 LOG2 POP POP POP POP PUSH2 0x728 PUSH1 0x1 PUSH0 DUP1 MLOAD PUSH1 0x20 PUSH2 0x1118 DUP4 CODECOPY DUP2 MLOAD SWAP2 MSTORE SSTORE JUMP JUMPDEST POP JUMP JUMPDEST PUSH2 0x733 PUSH2 0xE7D JUMP JUMPDEST PUSH2 0xBB8 DUP2 GT ISZERO PUSH2 0x774 JUMPI PUSH1 0x40 MLOAD PUSH3 0x461BCD PUSH1 0xE5 SHL DUP2 MSTORE PUSH1 0x20 PUSH1 0x4 DUP3 ADD MSTORE PUSH1 0xC PUSH1 0x24 DUP3 ADD MSTORE PUSH12 0xCCCACA40E8DEDE40D0D2CED PUSH1 0xA3 SHL PUSH1 0x44 DUP3 ADD MSTORE PUSH1 0x64 ADD PUSH2 0x48C JUMP JUMPDEST PUSH1 0x6 SSTORE JUMP JUMPDEST PUSH2 0x781 PUSH2 0xE7D JUMP JUMPDEST PUSH2 0x78A PUSH0 PUSH2 0xEA9 JUMP JUMPDEST JUMP JUMPDEST PUSH2 0x794 PUSH2 0xE7D JUMP JUMPDEST PUSH1 0x4 SLOAD DUP2 EQ PUSH2 0x7D4 JUMPI PUSH1 0x40 MLOAD PUSH3 0x461BCD PUSH1 0xE5 SHL DUP2 MSTORE PUSH1 0x20 PUSH1 0x4 DUP3 ADD MSTORE PUSH1 0xC PUSH1 0x24 DUP3 ADD MSTORE PUSH12 0xD8CADC40DAD2E6DAC2E8C6D PUSH1 0xA3 SHL PUSH1 0x44 DUP3 ADD MSTORE PUSH1 0x64 ADD PUSH2 0x48C JUMP JUMPDEST PUSH0 DUP1 JUMPDEST DUP3 DUP2 LT ISZERO PUSH2 0x80D JUMPI DUP4 DUP4 DUP3 DUP2 DUP2 LT PUSH2 0x7F1 JUMPI PUSH2 0x7F1 PUSH2 0x1029 JUMP JUMPDEST SWAP1 POP PUSH1 0x20 MUL ADD CALLDATALOAD DUP3 PUSH2 0x803 SWAP2 SWAP1 PUSH2 0x1051 JUMP JUMPDEST SWAP2 POP PUSH1 0x1 ADD PUSH2 0x7D7 JUMP JUMPDEST POP DUP1 PUSH2 0x2710 EQ PUSH2 0x851 JUMPI PUSH1 0x40 MLOAD PUSH3 0x461BCD PUSH1 0xE5 SHL DUP2 MSTORE PUSH1 0x20 PUSH1 0x4 DUP3 ADD MSTORE PUSH1 0xF PUSH1 0x24 DUP3 ADD MSTORE PUSH15 0x62616420616C6C6F636174696F6E73 PUSH1 0x88 SHL PUSH1 0x44 DUP3 ADD MSTORE PUSH1 0x64 ADD PUSH2 0x48C JUMP JUMPDEST PUSH0 JUMPDEST DUP3 DUP2 LT ISZERO PUSH2 0x89A JUMPI DUP4 DUP4 DUP3 DUP2 DUP2 LT PUSH2 0x86D JUMPI PUSH2 0x86D PUSH2 0x1029 JUMP JUMPDEST SWAP1 POP PUSH1 0x20 MUL ADD CALLDATALOAD PUSH1 0x5 DUP3 DUP2 SLOAD DUP2 LT PUSH2 0x887 JUMPI PUSH2 0x887 PUSH2 0x1029 JUMP JUMPDEST PUSH0 SWAP2 DUP3 MSTORE PUSH1 0x20 SWAP1 SWAP2 KECCAK256 ADD SSTORE PUSH1 0x1 ADD PUSH2 0x853 JUMP JUMPDEST POP PUSH32 0xC90FB8E7B2B4E1A4463F6C54D69334A5A8C1B1EEF51598D4F40A0FD241D1F2B8 DUP4 DUP4 PUSH1 0x40 MLOAD PUSH2 0x8CC SWAP3 SWAP2 SWAP1 PUSH2 0x10CC JUMP JUMPDEST PUSH1 0x40 MLOAD DUP1 SWAP2 SUB SWAP1 LOG1 POP POP POP JUMP JUMPDEST PUSH0 PUSH1 0x1 SLOAD PUSH0 SUB PUSH2 0x8F0 JUMPI POP PUSH8 0xDE0B6B3A7640000 SWAP1 JUMP JUMPDEST PUSH1 0x1 SLOAD PUSH2 0x8FB PUSH2 0x2E6 JUMP JUMPDEST PUSH2 0x90D SWAP1 PUSH8 0xDE0B6B3A7640000 PUSH2 0x1064 JUMP JUMPDEST PUSH2 0x917 SWAP2 SWAP1 PUSH2 0x107B JUMP JUMPDEST SWAP1 POP SWAP1 JUMP JUMPDEST PUSH0 PUSH1 0x1 SLOAD PUSH0 SUB PUSH2 0x92D JUMPI POP PUSH0 SWAP2 SWAP1 POP JUMP JUMPDEST PUSH1 0x1 SLOAD PUSH1 0x1 PUSH1 0x1 PUSH1 0xA0 SHL SUB DUP4 AND PUSH0 SWAP1 DUP2 MSTORE PUSH1 0x2 PUSH1 0x20 MSTORE PUSH1 0x40 SWAP1 KECCAK256 SLOAD PUSH2 0x950 PUSH2 0x2E6 JUMP JUMPDEST PUSH2 0x95A SWAP2 SWAP1 PUSH2 0x1064 JUMP JUMPDEST PUSH2 0x964 SWAP2 SWAP1 PUSH2 0x107B JUMP JUMPDEST SWAP3 SWAP2 POP POP JUMP JUMPDEST PUSH2 0x972 PUSH2 0xE62 JUMP JUMPDEST PUSH0 DUP2 GT PUSH2 0x9AF JUMPI PUSH1 0x40 MLOAD PUSH3 0x461BCD PUSH1 0xE5 SHL DUP2 MSTORE PUSH1 0x20 PUSH1 0x4 DUP3 ADD MSTORE PUSH1 0xB PUSH1 0x24 DUP3 ADD MSTORE PUSH11 0x16995C9BC8185B5BDD5B9D PUSH1 0xAA SHL PUSH1 0x44 DUP3 ADD MSTORE PUSH1 0x64 ADD PUSH2 0x48C JUMP JUMPDEST PUSH0 PUSH2 0x9B8 PUSH2 0x2E6 JUMP JUMPDEST PUSH1 0x40 MLOAD PUSH4 0x23B872DD PUSH1 0xE0 SHL DUP2 MSTORE CALLER PUSH1 0x4 DUP3 ADD MSTORE ADDRESS PUSH1 0x24 DUP3 ADD MSTORE PUSH1 0x44 DUP2 ADD DUP5 SWAP1 MSTORE SWAP1 SWAP2 POP PUSH32 0x0 PUSH1 0x1 PUSH1 0x1 PUSH1 0xA0 SHL SUB AND SWAP1 PUSH4 0x23B872DD SWAP1 PUSH1 0x64 ADD PUSH1 0x20 PUSH1 0x40 MLOAD DUP1 DUP4 SUB DUP2 PUSH0 DUP8 GAS CALL ISZERO DUP1 ISZERO PUSH2 0xA2B JUMPI RETURNDATASIZE PUSH0 DUP1 RETURNDATACOPY RETURNDATASIZE PUSH0 REVERT JUMPDEST POP POP POP POP PUSH1 0x40 MLOAD RETURNDATASIZE PUSH1 0x1F NOT PUSH1 0x1F DUP3 ADD AND DUP3 ADD DUP1 PUSH1 0x40 MSTORE POP DUP2 ADD SWAP1 PUSH2 0xA4F SWAP2 SWAP1 PUSH2 0x10AD JUMP JUMPDEST POP PUSH0 PUSH1 0x1 SLOAD PUSH0 EQ PUSH2 0xA78 JUMPI DUP2 PUSH1 0x1 SLOAD DUP5 PUSH2 0xA69 SWAP2 SWAP1 PUSH2 0x1064 JUMP JUMPDEST PUSH2 0xA73 SWAP2 SWAP1 PUSH2 0x107B JUMP JUMPDEST PUSH2 0xA7A JUMP JUMPDEST DUP3 JUMPDEST CALLER PUSH0 SWAP1 DUP2 MSTORE PUSH1 0x2 PUSH1 0x20 MSTORE PUSH1 0x40 DUP2 KECCAK256 DUP1 SLOAD SWAP3 SWAP4 POP DUP4 SWAP3 SWAP1 SWAP2 SWAP1 PUSH2 0xA9D SWAP1 DUP5 SWAP1 PUSH2 0x1051 JUMP JUMPDEST SWAP1 SWAP2 SSTORE POP POP CALLER PUSH0 SWAP1 DUP2 MSTORE PUSH1 0x3 PUSH1 0x20 MSTORE PUSH1 0x40 DUP2 KECCAK256 DUP1 SLOAD DUP6 SWAP3 SWAP1 PUSH2 0xAC0 SWAP1 DUP5 SWAP1 PUSH2 0x1051 JUMP JUMPDEST SWAP3 POP POP DUP2 SWAP1 SSTORE POP DUP1 PUSH1 0x1 PUSH0 DUP3 DUP3 SLOAD PUSH2 0xAD8 SWAP2 SWAP1 PUSH2 0x1051 JUMP JUMPDEST SWAP1 SWAP2 SSTORE POP POP PUSH1 0x40 DUP1 MLOAD DUP5 DUP2 MSTORE PUSH1 0x20 DUP2 ADD DUP4 SWAP1 MSTORE CALLER SWAP2 PUSH32 0x90890809C654F11D6E72A28FA60149770A0D11EC6C92319D6CEB2BB0A4EA1A15 SWAP2 ADD PUSH1 0x40 MLOAD DUP1 SWAP2 SUB SWAP1 LOG2 POP POP PUSH2 0x728 PUSH1 0x1 PUSH0 DUP1 MLOAD PUSH1 0x20 PUSH2 0x1118 DUP4 CODECOPY DUP2 MLOAD SWAP2 MSTORE SSTORE JUMP JUMPDEST PUSH2 0xB38 PUSH2 0xE7D JUMP JUMPDEST PUSH1 0x4 SLOAD DUP2 LT PUSH2 0xB75 JUMPI PUSH1 0x40 MLOAD PUSH3 0x461BCD PUSH1 0xE5 SHL DUP2 MSTORE PUSH1 0x20 PUSH1 0x4 DUP3 ADD MSTORE PUSH1 0x9 PUSH1 0x24 DUP3 ADD MSTORE PUSH9 0xC4C2C840D2DCC8CAF PUSH1 0xBB SHL PUSH1 0x44 DUP3 ADD MSTORE PUSH1 0x64 ADD PUSH2 0x48C JUMP JUMPDEST PUSH1 0x4 DUP2 DUP2 SLOAD DUP2 LT PUSH2 0xB88 JUMPI PUSH2 0xB88 PUSH2 0x1029 JUMP JUMPDEST PUSH0 SWAP2 DUP3 MSTORE PUSH1 0x20 SWAP2 DUP3 SWAP1 KECCAK256 ADD SLOAD PUSH1 0x40 DUP1 MLOAD PUSH3 0x787445 PUSH1 0xE2 SHL DUP2 MSTORE SWAP1 MLOAD PUSH1 0x1 PUSH1 0x1 PUSH1 0xA0 SHL SUB SWAP1 SWAP3 AND SWAP3 PUSH4 0x1E1D114 SWAP3 PUSH1 0x4 DUP1 DUP5 ADD SWAP4 DUP3 SWAP1 SUB ADD DUP2 DUP7 GAS STATICCALL ISZERO DUP1 ISZERO PUSH2 0xBD2 JUMPI RETURNDATASIZE PUSH0 DUP1 RETURNDATACOPY RETURNDATASIZE PUSH0 REVERT JUMPDEST POP POP POP POP PUSH1 0x40 MLOAD RETURNDATASIZE PUSH1 0x1F NOT PUSH1 0x1F DUP3 ADD AND DUP3 ADD DUP1 PUSH1 0x40 MSTORE POP DUP2 ADD SWAP1 PUSH2 0xBF6 SWAP2 SWAP1 PUSH2 0x1012 JUMP JUMPDEST ISZERO PUSH2 0xC38 JUMPI PUSH1 0x40 MLOAD PUSH3 0x461BCD PUSH1 0xE5 SHL DUP2 MSTORE PUSH1 0x20 PUSH1 0x4 DUP3 ADD MSTORE PUSH1 0x12 PUSH1 0x24 DUP3 ADD MSTORE PUSH18 0x7374726174656779206E6F6E2D656D707479 PUSH1 0x70 SHL PUSH1 0x44 DUP3 ADD MSTORE PUSH1 0x64 ADD PUSH2 0x48C JUMP JUMPDEST PUSH1 0x4 SLOAD PUSH0 SWAP1 PUSH2 0xC49 SWAP1 PUSH1 0x1 SWAP1 PUSH2 0x109A JUMP JUMPDEST SWAP1 POP DUP1 DUP3 EQ PUSH2 0xCF6 JUMPI PUSH1 0x4 DUP2 DUP2 SLOAD DUP2 LT PUSH2 0xC65 JUMPI PUSH2 0xC65 PUSH2 0x1029 JUMP JUMPDEST PUSH0 SWAP2 DUP3 MSTORE PUSH1 0x20 SWAP1 SWAP2 KECCAK256 ADD SLOAD PUSH1 0x4 DUP1 SLOAD PUSH1 0x1 PUSH1 0x1 PUSH1 0xA0 SHL SUB SWAP1 SWAP3 AND SWAP2 DUP5 SWAP1 DUP2 LT PUSH2 0xC90 JUMPI PUSH2 0xC90 PUSH2 0x1029 JUMP JUMPDEST SWAP1 PUSH0 MSTORE PUSH1 0x20 PUSH0 KECCAK256 ADD PUSH0 PUSH2 0x100 EXP DUP2 SLOAD DUP2 PUSH1 0x1 PUSH1 0x1 PUSH1 0xA0 SHL SUB MUL NOT AND SWAP1 DUP4 PUSH1 0x1 PUSH1 0x1 PUSH1 0xA0 SHL SUB AND MUL OR SWAP1 SSTORE POP PUSH1 0x5 DUP2 DUP2 SLOAD DUP2 LT PUSH2 0xCCE JUMPI PUSH2 0xCCE PUSH2 0x1029 JUMP JUMPDEST SWAP1 PUSH0 MSTORE PUSH1 0x20 PUSH0 KECCAK256 ADD SLOAD PUSH1 0x5 DUP4 DUP2 SLOAD DUP2 LT PUSH2 0xCEA JUMPI PUSH2 0xCEA PUSH2 0x1029 JUMP JUMPDEST PUSH0 SWAP2 DUP3 MSTORE PUSH1 0x20 SWAP1 SWAP2 KECCAK256 ADD SSTORE JUMPDEST PUSH1 0x4 DUP1 SLOAD DUP1 PUSH2 0xD07 JUMPI PUSH2 0xD07 PUSH2 0x1103 JUMP JUMPDEST PUSH0 DUP3 DUP2 MSTORE PUSH1 0x20 SWAP1 KECCAK256 DUP2 ADD PUSH0 NOT SWAP1 DUP2 ADD DUP1 SLOAD PUSH1 0x1 PUSH1 0x1 PUSH1 0xA0 SHL SUB NOT AND SWAP1 SSTORE ADD SWAP1 SSTORE PUSH1 0x5 DUP1 SLOAD DUP1 PUSH2 0xD38 JUMPI PUSH2 0xD38 PUSH2 0x1103 JUMP JUMPDEST PUSH1 0x1 SWAP1 SUB DUP2 DUP2 SWAP1 PUSH0 MSTORE PUSH1 0x20 PUSH0 KECCAK256 ADD PUSH0 SWAP1 SSTORE SWAP1 SSTORE POP POP JUMP JUMPDEST PUSH2 0xD57 PUSH2 0xE7D JUMP JUMPDEST PUSH1 0x4 DUP1 SLOAD PUSH1 0x1 DUP1 DUP3 ADD SWAP1 SWAP3 SSTORE PUSH32 0x8A35ACFBC15FF81A39AE7D344FD709F28E8600B4AA8C65C6B64BFE7FE36BD19B ADD DUP1 SLOAD PUSH1 0x1 PUSH1 0x1 PUSH1 0xA0 SHL SUB NOT AND PUSH1 0x1 PUSH1 0x1 PUSH1 0xA0 SHL SUB SWAP5 SWAP1 SWAP5 AND SWAP4 SWAP1 SWAP4 OR SWAP1 SWAP3 SSTORE PUSH1 0x5 DUP1 SLOAD SWAP3 DUP4 ADD DUP2 SSTORE PUSH0 MSTORE PUSH32 0x36B6384B5ECA791C62761152D0C79BB0604C104A5FB6F4EB0703F3154BB3DB0 SWAP1 SWAP2 ADD SSTORE JUMP JUMPDEST PUSH1 0x4 DUP2 DUP2 SLOAD DUP2 LT PUSH2 0xDE5 JUMPI PUSH0 DUP1 REVERT JUMPDEST PUSH0 SWAP2 DUP3 MSTORE PUSH1 0x20 SWAP1 SWAP2 KECCAK256 ADD SLOAD PUSH1 0x1 PUSH1 0x1 PUSH1 0xA0 SHL SUB AND SWAP1 POP DUP2 JUMP JUMPDEST PUSH2 0xE06 PUSH2 0xE7D JUMP JUMPDEST PUSH1 0x7 DUP1 SLOAD PUSH1 0x1 PUSH1 0x1 PUSH1 0xA0 SHL SUB NOT AND PUSH1 0x1 PUSH1 0x1 PUSH1 0xA0 SHL SUB SWAP3 SWAP1 SWAP3 AND SWAP2 SWAP1 SWAP2 OR SWAP1 SSTORE JUMP JUMPDEST PUSH2 0xE30 PUSH2 0xE7D JUMP JUMPDEST PUSH1 0x1 PUSH1 0x1 PUSH1 0xA0 SHL SUB DUP2 AND PUSH2 0xE59 JUMPI PUSH1 0x40 MLOAD PUSH4 0x1E4FBDF7 PUSH1 0xE0 SHL DUP2 MSTORE PUSH0 PUSH1 0x4 DUP3 ADD MSTORE PUSH1 0x24 ADD PUSH2 0x48C JUMP JUMPDEST PUSH2 0x728 DUP2 PUSH2 0xEA9 JUMP JUMPDEST PUSH2 0xE6A PUSH2 0xEF8 JUMP JUMPDEST PUSH1 0x2 PUSH0 DUP1 MLOAD PUSH1 0x20 PUSH2 0x1118 DUP4 CODECOPY DUP2 MLOAD SWAP2 MSTORE SSTORE JUMP JUMPDEST PUSH0 SLOAD PUSH1 0x1 PUSH1 0x1 PUSH1 0xA0 SHL SUB AND CALLER EQ PUSH2 0x78A JUMPI PUSH1 0x40 MLOAD PUSH4 0x118CDAA7 PUSH1 0xE0 SHL DUP2 MSTORE CALLER PUSH1 0x4 DUP3 ADD MSTORE PUSH1 0x24 ADD PUSH2 0x48C JUMP JUMPDEST PUSH0 DUP1 SLOAD PUSH1 0x1 PUSH1 0x1 PUSH1 0xA0 SHL SUB DUP4 DUP2 AND PUSH1 0x1 PUSH1 0x1 PUSH1 0xA0 SHL SUB NOT DUP4 AND DUP2 OR DUP5 SSTORE PUSH1 0x40 MLOAD SWAP2 SWAP1 SWAP3 AND SWAP3 DUP4 SWAP2 PUSH32 0x8BE0079C531659141344CD1FD0A4F28419497F9722A3DAAFE3B4186F6B6457E0 SWAP2 SWAP1 LOG3 POP POP JUMP JUMPDEST PUSH0 DUP1 MLOAD PUSH1 0x20 PUSH2 0x1118 DUP4 CODECOPY DUP2 MLOAD SWAP2 MSTORE SLOAD PUSH1 0x2 SUB PUSH2 0x78A JUMPI PUSH1 0x40 MLOAD PUSH4 0x3EE5AEB5 PUSH1 0xE0 SHL DUP2 MSTORE PUSH1 0x4 ADD PUSH1 0x40 MLOAD DUP1 SWAP2 SUB SWAP1 REVERT JUMPDEST PUSH0 PUSH1 0x20 DUP3 DUP5 SUB SLT ISZERO PUSH2 0xF37 JUMPI PUSH0 DUP1 REVERT JUMPDEST POP CALLDATALOAD SWAP2 SWAP1 POP JUMP JUMPDEST DUP1 CALLDATALOAD PUSH1 0x1 PUSH1 0x1 PUSH1 0xA0 SHL SUB DUP2 AND DUP2 EQ PUSH2 0xF54 JUMPI PUSH0 DUP1 REVERT JUMPDEST SWAP2 SWAP1 POP JUMP JUMPDEST PUSH0 PUSH1 0x20 DUP3 DUP5 SUB SLT ISZERO PUSH2 0xF69 JUMPI PUSH0 DUP1 REVERT JUMPDEST PUSH2 0xF72 DUP3 PUSH2 0xF3E JUMP JUMPDEST SWAP4 SWAP3 POP POP POP JUMP JUMPDEST PUSH0 DUP1 PUSH1 0x20 DUP4 DUP6 SUB SLT ISZERO PUSH2 0xF8A JUMPI PUSH0 DUP1 REVERT JUMPDEST DUP3 CALLDATALOAD PUSH8 0xFFFFFFFFFFFFFFFF DUP2 GT ISZERO PUSH2 0xFA0 JUMPI PUSH0 DUP1 REVERT JUMPDEST DUP4 ADD PUSH1 0x1F DUP2 ADD DUP6 SGT PUSH2 0xFB0 JUMPI PUSH0 DUP1 REVERT JUMPDEST DUP1 CALLDATALOAD PUSH8 0xFFFFFFFFFFFFFFFF DUP2 GT ISZERO PUSH2 0xFC6 JUMPI PUSH0 DUP1 REVERT JUMPDEST DUP6 PUSH1 0x20 DUP3 PUSH1 0x5 SHL DUP5 ADD ADD GT ISZERO PUSH2 0xFDA JUMPI PUSH0 DUP1 REVERT JUMPDEST PUSH1 0x20 SWAP2 SWAP1 SWAP2 ADD SWAP6 SWAP1 SWAP5 POP SWAP3 POP POP POP JUMP JUMPDEST PUSH0 DUP1 PUSH1 0x40 DUP4 DUP6 SUB SLT ISZERO PUSH2 0xFFB JUMPI PUSH0 DUP1 REVERT JUMPDEST PUSH2 0x1004 DUP4 PUSH2 0xF3E JUMP JUMPDEST SWAP5 PUSH1 0x20 SWAP4 SWAP1 SWAP4 ADD CALLDATALOAD SWAP4 POP POP POP JUMP JUMPDEST PUSH0 PUSH1 0x20 DUP3 DUP5 SUB SLT ISZERO PUSH2 0x1022 JUMPI PUSH0 DUP1 REVERT JUMPDEST POP MLOAD SWAP2 SWAP1 POP JUMP JUMPDEST PUSH4 0x4E487B71 PUSH1 0xE0 SHL PUSH0 MSTORE PUSH1 0x32 PUSH1 0x4 MSTORE PUSH1 0x24 PUSH0 REVERT JUMPDEST PUSH4 0x4E487B71 PUSH1 0xE0 SHL PUSH0 MSTORE PUSH1 0x11 PUSH1 0x4 MSTORE PUSH1 0x24 PUSH0 REVERT JUMPDEST DUP1 DUP3 ADD DUP1 DUP3 GT ISZERO PUSH2 0x964 JUMPI PUSH2 0x964 PUSH2 0x103D JUMP JUMPDEST DUP1 DUP3 MUL DUP2 ISZERO DUP3 DUP3 DIV DUP5 EQ OR PUSH2 0x964 JUMPI PUSH2 0x964 PUSH2 0x103D JUMP JUMPDEST PUSH0 DUP3 PUSH2 0x1095 JUMPI PUSH4 0x4E487B71 PUSH1 0xE0 SHL PUSH0 MSTORE PUSH1 0x12 PUSH1 0x4 MSTORE PUSH1 0x24 PUSH0 REVERT JUMPDEST POP DIV SWAP1 JUMP JUMPDEST DUP2 DUP2 SUB DUP2 DUP2 GT ISZERO PUSH2 0x964 JUMPI PUSH2 0x964 PUSH2 0x103D JUMP JUMPDEST PUSH0 PUSH1 0x20 DUP3 DUP5 SUB SLT ISZERO PUSH2 0x10BD JUMPI PUSH0 DUP1 REVERT JUMPDEST DUP2 MLOAD DUP1 ISZERO ISZERO DUP2 EQ PUSH2 0xF72 JUMPI PUSH0 DUP1 REVERT JUMPDEST PUSH1 0x20 DUP1 DUP3 MSTORE DUP2 ADD DUP3 SWAP1 MSTORE PUSH0 PUSH1 0x1 PUSH1 0x1 PUSH1 0xFB SHL SUB DUP4 GT ISZERO PUSH2 0x10EA JUMPI PUSH0 DUP1 REVERT JUMPDEST DUP3 PUSH1 0x5 SHL DUP1 DUP6 PUSH1 0x40 DUP6 ADD CALLDATACOPY SWAP2 SWAP1 SWAP2 ADD PUSH1 0x40 ADD SWAP4 SWAP3 POP POP POP JUMP JUMPDEST PUSH4 0x4E487B71 PUSH1 0xE0 SHL PUSH0 MSTORE PUSH1 0x31 PUSH1 0x4 MSTORE PUSH1 0x24 PUSH0 REVERT INVALID SWAP12 PUSH24 0x9B17422D0DF92223018B32B4D1FA46E071723D6817E2486D STOP EXTCODESIZE 0xEC 0xC5 PUSH0 STOP LOG2 PUSH5 0x6970667358 0x22 SLT KECCAK256 0xB7 CALLVALUE INVALID DUP13 BYTE POP PUSH7 0xA53E589CF86E01 0xB7 LOG1 SWAP16 0xC1 0x4F SMOD 0xAD 0xA8 DUP16 SAR SDIV POP 0xE3 RETURNDATASIZE STOP DUP10 JUMP DUP1 PUSH5 0x736F6C6343 STOP ADDMOD BYTE STOP CALLER "},"methodIdentifiers":{"addStrategy(address,uint256)":"c9411e22","allocations(uint256)":"0a2642bf","asset()":"38d52e0f","deposit(uint256)":"b6b55f25","depositedAmount(address)":"4a4643f7","feeRecipient()":"46904840","getUserValue(address)":"a78c849b","owner()":"8da5cb5b","performanceFee()":"87788782","rebalance(uint256[])":"780d5710","removeStrategy(uint256)":"c0cbbca6","renounceOwnership()":"715018a6","setFeeRecipient(address)":"e74b981b","setPerformanceFee(uint256)":"70897b23","sharePrice()":"87269729","shares(address)":"ce7c2ac2","strategies(uint256)":"d574ea3d","totalAssets()":"01e1d114","totalShares()":"3a98ef39","transferOwnership(address)":"f2fde38b","withdraw(uint256)":"2e1a7d4d"}}}}}